:100000000C948C010C94D3010C94D3010C94D30167
:100010000C94D3010C94D3010C94D3010C94D30110
:100020000C94D3010C94D3010C94BA1D0C948C1E27
:100030000C94DD180C94D3010C94D3010C94D301CF
:100040000C94D3010C94D3010C94D3010C94D301E0
:100050000C94D3010C9436190C94D3010C94D30155
:100060000C94D3010C94D3010C94D3010C94D301C0
:100070000C94D3010C94D3010C94D3010C94D301B0
:100080000C94D3010C94D3010C94D3010C94D301A0
:100090000C94D3010C94D3010C94D3010C94D30190
:1000A0000C94D3010C94D3010C94D301DC04DC0434
:1000B0000805080570058E05A606A60699053206F0
:1000C000430643064A074A075C075C0753075C0779
:1000D0005C075C074A074A0758075C075C07580734
:1000E000F91E201F1820201F18206C1F8F1F18209A
:1000F000E61FF51F303000AE00AC00AB00A80000DA
:1001000000530054005500560000005F006000617D
:10011000002E0000005C005D005E005700000059EA
:10012000005A005B005800000062000000A65D63FA
:10013000004C0000000000000000002A2B280000F6
:100140000000000000000000000000000000290086
:100150000000002C1E3420212224342627252E3690
:100160002D3738271E1F20212223242526333336FE
:100170002E37381F0405060708090A0B0C0D0E0F51
:10018000101112131415161718191A1B1C1D2F31D4
:1001900030232D350405060708090A0B0C0D0E0F38
:1001A000101112131415161718191A1B1C1D2F31B4
:1001B00030354C000000000000000000000000008E
:1001C000000000000000000000000000000000002F
:1001D000000000000000007E0F00D4FFFFFFC700FA
:1001E000000078140372006D005F006E0075006DF2
:1001F000007000610064000000100352004D004BCD
:100200000065006500620073000000040309040932
:10021000023B00020100A0FA0904000001030101F1
:100220000009211101000122400007058103080097
:100230000A09040100010300000009211101000165
:10024000227B000705820320000A12010002000041
:100250000008EDFE4E5201000102000105010902F5
:10026000A10185020901A10005091901290815004C
:1002700025019508750181020501093009311581B3
:10028000257F95027508810609381581257F95011E
:1002900075088106050C0A38021581257F950175C0
:1002A000088106C0C005010980A101850319012A42
:1002B000B700150126B700950175108100C0050C27
:1002C0000901A101850419012AA002150126A00235
:1002D000950175108100C005010906A101050719E6
:1002E000E029E71500250195087501810295017542
:1002F0000881010507190029FF150026FF00950652
:1003000075088100050819012905950575019102F7
:10031000950175039101C00011241FBECFEFDAE0F3
:10032000DEBFCDBF04B603FE27C080915902909175
:100330005A02A0915B02B0915C028730904BA740BB
:10034000B04BD1F41092590210925A0210925B02F3
:1003500010925C0214BE84B7877F84BF0FB6F894F6
:10036000A895809160008861809360001092600081
:100370000FBEE0E0F8E3099511E0A0E0B1E0E6E9A6
:10038000F1E402C005900D92A639B107D9F722E039
:10039000A6E9B1E001C01D92A935B207E1F70E94BC
:1003A000AA120C94C9200C940000863A9D4541F491
:1003B000FB018281882321F084EF90E00E94850375
:1003C00081E00895662311F089EA01C08AEA0E945B
:1003D0008A0480E0089581E008950C94D501089581
:1003E0000C94EF011F93CF93DF9300D000D01F92A6
:1003F000CDB7DEB749835A836B83309198018981E9
:100400009A81311114C0662359F0222349F00E94C9
:10041000F008182F682F89819A810E94970803C0DD
:100420000E94C308182F69817A81812F04C00E941D
:10043000F00869817A810F900F900F900F900F90C4
:10044000DF91CF911F910C942A10FC01262F40813F
:1004500051816281738184810C94F20181E008955D
:10046000CF93DF93EC0160E00E942502BE01DF9193
:10047000CF910C94F0010E9433110E948F030C94D1
:100480006D110C94691180E00C94900308950C9404
:1004900046020E9438070E9447022FEF84E39CE047
:1004A000215080409040E1F700C000000C945C199E
:1004B0000F931F93CF93DF938C0161E00E9425027D
:1004C000EC01B8010E94ED018823F1F1B801CE01E1
:1004D0000E9482178823C1F1B801CE010E944A15FB
:1004E000882391F1B801CE010E94DE16882361F1C4
:1004F000F8018281882309F1CB358DE5D807C1F059
:1005000050F4C115FCE5DF0781F0CF3DDC45A9F4CF
:100510000E941A0E19C0CC35EDE5DE0761F0CD352D
:10052000DD4559F40E945D0D08C00E9449020CC0CF
:100530000E94660D02C00E94690DC801DF91CF9133
:100540001F910F910C94EB0180E0DF91CF911F91EF
:100550000F9108950C9446020E94DE170E949003AA
:100560000C94AA02DF92EF92FF920F931F93CF9306
:10057000DF93E82FF0E0ED5CFE4FD490282F269516
:100580002695269530E0F901ED52FE4F04918770D3
:1005900010E0082E02C0159507950A94E2F7017045
:1005A0001127F901ED53FE4FE490F12C082E02C003
:1005B000F594E7940A94E2F791E0E922FF24F90127
:1005C000ED54FE4FC491D0E002C0D595C7958A95F1
:1005D000E2F7C170DD270115110519F081EE0E94C7
:1005E000E903E114F10419F086EE0E94E9038D2D70
:1005F0000E948A04EF2819F086EE0E943F04012B26
:1006000019F081EE0E943F04CD2B51F08CE2DF9176
:10061000CF911F910F91FF90EF90DF900C948A047F
:10062000DF91CF911F910F91FF90EF90DF90089590
:10063000EF92FF920F931F93CF93DF938C01F62ECF
:100640008AE0E82EF8018491882309F457C08130AC
:1006500009F042C0E8012196FE018491813031F415
:100660002196FE0184910E948A0439C0823039F4B7
:10067000E8012296FE0184910E94E90330C0833094
:1006800039F4E8012296FE0184910E943F0427C0BC
:10069000843029F5E8012296FE01249180E090E063
:1006A00030E0205331092A30310560F4E89EA00182
:1006B000E99E500D1124C901840F951F2196FE015A
:1006C0002491EECF009759F0EFE9FFE03197F1F771
:1006D00000C000000197F6CF0E94B202E8018E012F
:1006E0000F5F1F4F8F2D882309F4ACCFEFE9FFE098
:1006F0003197F1F700C000008150F5CFDF91CF9125
:100700001F910F91FF90EF90089560E00C941803F3
:1007100008950C94880381E008950C948B03089548
:10072000CF93C82F0E9489038C2F0E948D03CF91F5
:100730000895CF93DF93CDB7DEB72B970FB6F8941C
:10074000DEBF0FBECDBF4F83588769877A878B87FF
:1007500061110E94B60C9E012F5F3F4F86E0F901A8
:1007600011928A95E9F785E0FE013796D90101904B
:100770000D928A95E1F789819A814C815D81452BA3
:1007800031F09F3F31F491E08F3F19F403C091E0C5
:1007900001C090E090FF09C049815A816B817C8142
:1007A0008D819E810E94D70B05C0C9010E942E0237
:1007B0008111F2CF2B960FB6F894DEBF0FBECDBFDE
:1007C000DF91CF910895FC01808191810E943209CF
:1007D0000895CF93882309F450C0C82F8CEF8C0F55
:1007E000813AD0F46C2F80910201909103010E9414
:1007F0003B18882349F06C2F8091020190910301EE
:100800000E9473180E94DB0C6C2F80910201909162
:1008100003010E9471180CC080E28C0F883058F4DC
:10082000C77081E001C0880FCA95EAF70E94990C51
:10083000CF910C94DB0CEBE5EC0FE33040F4F0E0EF
:10084000E95BFE4F808190E0CF910C940318E8E5BE
:10085000EC0FE73150F4F0E0EE0FFF1FE75EFE4FC4
:1008600080819181CF910C941918CD3E30F08C2F5E
:100870000E943913CF910C940B14CF9108958823C3
:1008800089F19CEF980F913A40F4682F8091020112
:10089000909103010E9473180DC090E2980F983058
:1008A00058F4877091E001C0990F8A95EAF7892F73
:1008B0000E949F0C0C94DB0C9BE5980F933020F466
:1008C00080E090E00C94031898E5980F973120F49D
:1008D00080E090E00C9419188D3E20F00E94941353
:1008E0000C940B1408951F93CF93DF93182FEB01F3
:1008F0000E94E903209741F08FE99FE00197F1F70B
:1009000000C000002197F6CF812FDF91CF911F917A
:100910000C943F04893319F060E070E002C060E598
:1009200070E00C947304882321F00E94990C0C94BD
:10093000DB0C0895882321F00E949F0C0C94DB0CA3
:100940000895CF92DF92EF92FF920F931F93CF9370
:10095000DF937C01D62FC72FFC0112810581029500
:100960000F700E948F0C8823B9F01123A9F08C2FEF
:10097000807F803421F080E28D0F883068F0809194
:100980003B0282FD09C082E00E942B0D0E948F0C69
:1009900091E0D82ED92601C0D12CCC2EC2948FE064
:1009A000C8228C2D90E08C30910508F0CFC1FC015D
:1009B000EA5AFF4F0C9460208C2F807FCF708823E1
:1009C00011F0C295C07F112399F0CC2309F4AAC17C
:1009D00080E28D0F883010F0D11104C08C2F0E945E
:1009E000990C03C08C2F0E94A90C0E94DB0C9AC1A9
:1009F0008D2F0E943F04CC2309F4A8C180E28D0F03
:100A0000883038F1DD2329F18C2F0E94AF0C24C0EF
:100A10008C2F807FCF70803211F0C295C07FDD2394
:100A200019F0D130A1F13DC080913B0282FF17C087
:100A3000112349F0CC2329F08C2F0E94990C0E949D
:100A4000DB0C80E070C180E00E943F04CC2309F4FD
:100A50007DC18C2F0E949F0C0E94DB0C77C111235B
:100A600071F0002341F0013031F40E94BC0C8C2B5A
:100A70000E94C40C6BC10E94BC0C8C2B1DC00023B7
:100A800019F0013009F462C10E94D10C25C0112374
:100A900021F0063008F05AC10EC0053008F056C1EA
:100AA0001BC0112361F0002331F0F701858180FF25
:100AB00039C18F7085838C2F0E94930447C1002316
:100AC00059F0D93309F03FC1FFEF07EE13E0F150C1
:100AD00000401040E1F735C18C2F0E949A0436C1C6
:100AE0008C2F86958695837019F0813061F02EC128
:100AF000112321F08D2F9C2F937002C080E090E095
:100B00000E9403182BC1112321F08D2F9C2F93706D
:100B100002C080E090E00E94191820C18D2F11239F
:100B200019F00E94391302C00E9494130E940B1402
:100B300015C18C2F837009F047C011110BC12D2FE7
:100B4000229526952770220F220F6D2F6F70862F0A
:100B500090E0A0E0B0E0022E04C0880F991FAA1F09
:100B6000BB1F0A94D2F7D4FF10C04FE050E060E002
:100B700070E004C0440F551F661F771F2A95D2F7F7
:100B8000409550956095709503C040E050E0BA01E3
:100B9000C695C695C3708A019B01082B192B2A2B79
:100BA0003B2BC901B801C23049F058F4C13019F0EB
:100BB0000E94AD07CFC00E949B07CCC00E94BF0718
:100BC000C9C00E949907C6C0112319F08C2F8170EB
:100BD00001C08695882309F4BDC02D2F2295269546
:100BE0002770220F220F6D2F6F70862F90E0A0E0EC
:100BF000B0E0022E04C0880F991FAA1FBB1F0A94E1
:100C0000D2F7D4FF10C04FE050E060E070E004C0C5
:100C1000440F551F661F771F2A95D2F740955095B0
:100C20006095709503C040E050E0BA01C695C69546
:100C3000C3708A019B01082B192B2A2B3B2BC9015E
:100C4000B801C23049F058F4C13019F00E9472085E
:100C500081C00E9460087EC00E9484087BC00E9400
:100C6000D30778C0CF70112339F08C2F0E94F90779
:100C70008D2F0E9493046EC08D2F0E949A048C2F9A
:100C80000E941A0867C0D23F21F128F4D03F41F0FA
:100C9000D13FC1F043C0D33F19F1D43F79F03EC0FA
:100CA000112341F0053008F051C08C2F8F710E9444
:100CB0003F084CC0063008F049C0F7CF80913B0296
:100CC00082FF18C0112339F08C2F8F710E94F90711
:100CD0003DC01123C9F38C2F8F710E941A0836C0B2
:100CE000112329F08C2F8F710E94E4072FC00E94DE
:100CF000DF072CC0112349F0CF718C2F0E94F90718
:100D000063E08C2F0E94100D21C081E00E942B0D0A
:100D10000230E0F082E00E942B0D18C0112331F068
:100D2000002391F28D2F0E94E90310C0002399F255
:100D3000D93349F41FEF27EE33E011502040304003
:100D4000E1F700C000008D2F0E943F0488EF8C0D5A
:100D5000843020F40E94DE170E949003DD20C9F049
:100D60000E948B0C80FD15C0F70112820E94850C39
:100D70000E94F907C7010E94EA060E94850CDF91D4
:100D8000CF911F910F91FF90EF90DF90CF900C9437
:100D90001A08DF91CF911F910F91FF90EF90DF9094
:100DA000CF9008950F931F93CF93DF93EC01688149
:100DB00079818A810E943D098C010E9496080E94D7
:100DC0008707B801CE010E94A104DF91CF911F9146
:100DD0000F910895CF93DF93EC01988189812B8146
:100DE0003C81232B31F08F3F31F481E09F3F19F498
:100DF00003C081E001C080E080FD1DC0CE010E94E3
:100E00005802811110C00E948F0C8823A1F08A81A2
:100E1000882389F080913B0282FD0DC082E0DF9142
:100E2000CF910C942B0DCE010E94D206CE01DF9102
:100E3000CF910C943002DF91CF91089580E090E043
:100E40000E94031880E090E00E9419180E94B60CDE
:100E50000E94B90C0E94DB0C0E943C150C940B14F0
:100E600080910201909103010E9475180C941E0755
:100E70000E94A60C0C943007E92FE295EF704E2FDC
:100E800050E0FA013297EE30F105B0F4EE59FF4F21
:100E90000C946020803F91F018F4883E68F40EC0F6
:100EA000843F51F40BC0883E48F0813F29F406C0CE
:100EB00093FB882780F9089580E0089581E00895E4
:100EC000FC01808191810E9432090E943C070895B3
:100ED000CF93DF9300D000D01F92CDB7DEB70F9035
:100EE0000F900F900F900F90DF91CF910895CF93B7
:100EF000DF9300D000D000D0CDB7DEB726960FB676
:100F0000F894DEBF0FBECDBFDF91CF910895089555
:100F100008950C9488070C9489070E948B076093AE
:100F2000B1017093B2018093B3019093B4010C941A
:100F30001E070C948D070F931F930091B101109120
:100F4000B2012091B3013091B401602B712B822B3F
:100F5000932B1F910F910C948D070F931F9300916A
:100F6000B1011091B2012091B3013091B40160231D
:100F70007123822393231F910F910C948D070F935C
:100F80001F930091B1011091B2012091B3013091F2
:100F9000B40160277127822793271F910F910C942A
:100FA0008D070C9488070E94D1076093AD01709360
:100FB000AE018093AF019093B0010C941E0760E0E6
:100FC00070E0CB010C94D3070F931F9341E050E0E6
:100FD00060E070E08A019B0104C0000F111F221F16
:100FE000331F8A95D2F7C901B8011F910F910C9454
:100FF000D3070F931F9341E050E060E070E004C01E
:10100000440F551F661F771F8A95D2F78091AD0157
:101010009091AE01A091AF01B091B0018A019B0106
:10102000082B192B2A2B3B2BC901B8011F910F91BB
:101030000C94D3070F931F9341E050E060E070E001
:1010400004C0440F551F661F771F8A95D2F740953D
:101050005095609570958091AD019091AE01A091F1
:10106000AF01B091B0018A019B01082319232A2303
:101070003B23C901B8011F910F910C94D3070F9323
:101080001F9341E050E060E070E004C0440F551F42
:10109000661F771F8A95D2F78091AD019091AE01BE
:1010A000A091AF01B091B0018A019B0108271927D7
:1010B0002A273B27C901B8011F910F910C94D30730
:1010C0000F931F930091AD011091AE012091AF01DC
:1010D0003091B001602B712B822B932B1F910F91BC
:1010E0000C94D3070F931F930091AD011091AE01A3
:1010F0002091AF013091B0016023712382239323AB
:101100001F910F910C94D3070F931F930091AD0182
:101110001091AE012091AF013091B001602771278D
:10112000822793271F910F910C94D307089524E0F1
:10113000929F900D1124890FE82FE695E695E6958C
:10114000877051E001C0550F8A95EAF785E0E89F66
:10115000F0011124E756FE4F20E030E070E04081BE
:10116000CB01022E02C0969587950A94E2F7817012
:10117000819584278523842781932F5F3F4F2530D6
:10118000310569F7089524E0929F900D1124890F8D
:10119000682F669566956695982F977085E0689F8D
:1011A000B001112440E050E080E0FB01E40FF51FA6
:1011B000E756FE4F208130E0092E02C03695279574
:1011C0000A94E2F721703327042E01C0220F0A94FB
:1011D000EAF7822B4F5F5F4F4530510531F7089595
:1011E000BF92CF92DF92EF92FF920F931F93CF9314
:1011F000DF938C01C090AD01D090AE01E090AF01C3
:10120000F090B0018091B1019091B201A091B30131
:10121000B091B401C82AD92AEA2AFB2ACFE1D0E04A
:10122000D701C6010C2E04C0B695A7959795879552
:101230000A94D2F780FD04C0219790F7B12C07C023
:10124000BC2EB8018C2F0E943D100197A9F38B2D65
:10125000DF91CF911F910F91FF90EF90DF90CF9092
:10126000BF900895CF93DF93EC010E94F008BE0178
:101270000E943D10DF91CF9108951F93CF93DF938C
:10128000EB0190919801992321F0CB010E94320942
:1012900013C0882349F0CB010E94F008182F682F53
:1012A000CE010E94970804C0CB010E94C308182FEA
:1012B000BE01812F0E943D10DF91CF911F910895B3
:1012C0001F93CF93DF93C091B50116E08091B601D3
:1012D000C81799F0D0E01C9FF0011D9FF00D11245C
:1012E000E954FE4F408151816281738184819581EF
:1012F0000E9477072196C770E9CFDF91CF911F91A8
:1013000008954091E7015091E8016091E9017091E1
:10131000EA018091EB019091EC010C947707EF9238
:10132000FF920F931F93CF93DF938091EC018295EF
:101330008F7009F065C08091E901882309F460C0CD
:101340008091B501F090B6011091E7010091E8019C
:101350006091EA017091EB0191E01F3F09F090E08C
:10136000C0910001D0910101292F96E0E92E8F153F
:1013700009F446C06115710521F00F3F21F030E0FE
:1013800003C031E001C0322F90E030FD36C0E89E4E
:10139000F001E99EF00D1124DF01A954BE4F119612
:1013A0003C911197301329C03C91311326C01296FD
:1013B0003C911297311121C013964D915C91149775
:1013C000461B570B4C175D07C0F48091EC018F70E2
:1013D00080618093EC01E454FE4F80818F708061C6
:1013E000808387EE91E00E94EA06DF91CF911F9102
:1013F0000F91FF90EF900C94600901968770B7CF22
:10140000DF91CF911F910F91FF90EF9008959F92E0
:10141000AF92BF92CF92DF92EF92FF920F931F9302
:10142000CF93DF93CDB7DEB761970FB6F894DEBFE9
:101430000FBECDBF8C0185E0F801DE011D96019045
:101440000D928A95E1F7D8011296EC909091E70100
:10145000E091E8012091EA013091EB01211531057D
:1014600031F0EF3F31F481E09F3F19F403C081E098
:1014700001C080E0B82FB1709B2E80FD47C1D8011C
:101480004C9111965C9111971396AD90BC90149766
:1014900087EEC82E81E0D82EF090E901B501621BDD
:1014A000730B2091000130910101FF2009F4D9C094
:1014B0008091EC016217730708F095C0282F207FF8
:1014C00009F052C05E1313C0491311C0FE2CE11085
:1014D0000EC08F7080618093EC010E948109C6016B
:1014E0000E94EA068091EC01F80185834DC1AB288A
:1014F00031F05F3F31F481E04F3F19F403C081E0E8
:1015000001C080E080FD03C081E08E2502C080E044
:1015100090E0F82FF170FF2E80FF1CC08091B50184
:101520002091B60136E0821709F40BC190E0389F94
:10153000F001399FF00D1124E954FE4F61815613DB
:1015400006C06081461303C06281E61203C00196A3
:101550008770E9CFFE2CEE2009F416C18091EC01D2
:1015600081608093EC0154C05E1306C0491304C02F
:10157000E11002C0F80199C0C8010E9460078823E9
:1015800061F1EE2051F12091EC01822F82958F7054
:1015900090E0029774F08091E7019091E8019887BC
:1015A0008F831986BB86AA862C87CE0107960E9458
:1015B000EA0686E0F801A7EEB1E001900D928A9567
:1015C000E1F70E948F090E9481090AC05E1711F19C
:1015D000C8010E94600781112CC0C8010E94EA0660
:1015E000FF24F394D1C0282F207F81F77A2DB98A68
:1015F000A88A6E2D89890E94680787EE91E00E9473
:10160000EA0686E0D6011D928A95E9F70E948109D3
:10161000F12CBAC04913DCCFE110DACFF801858391
:10162000C8010E94EA0686E0D6011D928A95E9F774
:10163000ABC0EE2091F22091EC01822F82958F7049
:1016400090E002970CF4B5CF8091E7019091E8010A
:101650009A8389831B82BD82AC822E83CE01019640
:10166000A6CF6217730708F044C0FE2CEE2009F4E1
:10167000B4CF5E1330C049132EC02091EC0120FD81
:1016800021C0822F82958F70482F50E0411551055F
:10169000C9F0F80125834F30510541F08F5F982F35
:1016A0009295907F822F8F70892B8583C8010E942D
:1016B000EA0686E0F801A7EEB1E001900D928A9566
:1016C000E1F73CC086E0F801A7EEB1E001900D9291
:1016D0008A95E1F759C0C8010E946007811169CF5E
:1016E0008091EC0181608093EC01C8010E94EA06C0
:1016F0004BC07A2DB98AA88A6E2D89890E94680705
:1017000086E0D6011D928A95E9F718C0EE2009F40B
:1017100064CFC8010E946007F82E882309F45DCFCA
:1017200086E0F801A7EEB1E001900D928A95E1F70D
:1017300087EE91E00E94E3030E948F090E948109D5
:1017400023C04D875E878D859E850E943209292F93
:1017500022952F70223028F49F7039F0811105C036
:101760000BC0243028F49F7049F4805E883020F04C
:10177000C8010E94EA069F2CF92C06C0D8011596D4
:101780009C91907F91F7F8CF8F2D61960FB6F894CA
:10179000DEBF0FBECDBFDF91CF911F910F91FF90A4
:1017A000EF90DF90CF90BF90AF909F9008951F93E0
:1017B000CF93DF93CDB7DEB72C970FB6F894DEBF8B
:1017C0000FBECDBF4F83588769877A878B879C87E9
:1017D000CE0107960E94070A8823D1F09F81888551
:1017E0002A853B85232B31F08F3F31F481E09F3FE9
:1017F00019F403C081E001C080E080FD47C04F8143
:10180000588569857A858B859C850E9477073EC0BF
:1018100086E0FE013796DE01119601900D928A95C1
:10182000E1F7FF81E8856A857B856115710531F0F7
:10183000EF3F31F481E0FF3F19F403C081E001C0C4
:1018400080E080FD23C02091B60130E0C9010196FF
:10185000877099274091B50150E084179507F1F101
:10186000F983EA837D836C8396E0929FD001939FF6
:10187000B00D1124A954BE4FFE01319601900D9276
:101880009A95E1F78093B6010E94600916E0809175
:10189000B5019091B601891771F1189FC00111240B
:1018A00089549E4F0E94070A882329F1E091B501CF
:1018B0001E9FF0011124E954FE4F40815181628145
:1018C0007381848195810E9477078091B50190E0B2
:1018D0000196877099278093B501D9CF0E94380768
:1018E0001092B6011092B501E7EEF1E086E0DF015B
:1018F0001D928A95E9F72C960FB6F894DEBF0FBEBD
:10190000CDBFDF91CF911F9108958091ED01859515
:101910008595859508958091ED0187700895909142
:10192000ED01977081E009F480E008958091F9015C
:1019300008959091F901892B8093F901089580957C
:101940009091F90189238093F90108951092F9018A
:1019500008959091F801892B8093F801089580955E
:101960009091F80189238093F80108951092F8016D
:1019700008951092F70108958091EE010895089559
:101980000C94BF0C0C94C00C90913B0292FD08C0CB
:101990009091EE01981721F08093EE010C94C20C07
:1019A00008958091EE01882329F01092EE0180E0E5
:1019B0000C94C20C0895E0910201F0910301809112
:1019C000F9018083E0910201F091030190818091FF
:1019D000F801892B8083E0910201F091030190814D
:1019E0008091F701892B80838091EE01882381F01B
:1019F000E0910201F09103019081892B8083809115
:101A00000201909103010E942F1881110E94D10CB4
:101A100080910201909103010C94EA170C94BF0C81
:101A200090913B0292FD10C098E0899F9001112493
:101A3000262B2093ED010E94F9078091ED018595F9
:101A4000859585950C940E0D0C94F9071092ED0177
:101A500080E00C940E0D2091ED01809582238093FF
:101A6000ED01982F977099F430E0482F082E000C64
:101A7000550B2417350759F090913B0292FD07C092
:101A80008595859585950E941A080C94260D0895D4
:101A900090913B0292FB222720F9281769F080FBE6
:101AA00092F990933B0280913A0290913B020E94FE
:101AB000960D82E00C942B0D089580913B0282FBE1
:101AC000882780F991E089270C94480D81E00C94D7
:101AD000480D80E00C94480D6FEF7FEF80E090E0C0
:101AE0000C94B32080E090E00E948F2021E0893E9A
:101AF0009E4F09F020E0822F089582E090E00C9440
:101B0000872083E090E00C948720CF9384E090E0DE
:101B10000E948720C82F82E290E00E9487202C2F0D
:101B200030E0A901582BCA01CF910895CF93C92F56
:101B3000682F84E090E00E9495206C2F82E290E074
:101B4000CF910C949520AB01BC018FE090E00C94F8
:101B5000A720AB01BC0183E190E00C94A72060E0DA
:101B600070E0CB010C94A90D60E070E0CB010E9405
:101B7000A30D0C94AF0D69EE7EEF80E090E00E9423
:101B8000B32060E082E090E00E94952060E083E076
:101B900090E00E9495201092B1011092B201109233
:101BA000B3011092B40160E084E090E00E949520BF
:101BB00060E082E290E00E94952060E085E090E0A5
:101BC0000E94952060E086E090E00E9495206FEFF3
:101BD00087E090E00E94952040E050E0BA0188E064
:101BE00090E00E94A72060E08DE090E00E949520A8
:101BF00040E050E0BA0188E190E00E94A72060E058
:101C000087E190E00E94952040E050E0BA018CE12D
:101C100090E00E94A72060E070E080E290E00E94E7
:101C2000B32040E050E0BA0188E190E00E94A72094
:101C30000C94B40D0C94BB0D682F8EE090E00C94C6
:101C400095200E941B196093090270930A028093E9
:101C50000B0290930C02609305027093060280932E
:101C600007029093080208950E941B1960930902CD
:101C700070930A0280930B0290930C02609301020E
:101C8000709302028093030290930402089585B733
:101C9000806885BF85B7806885BF089581E0089515
:101CA0000C944E0E08950C94520E0C94520E0C94FB
:101CB000550E0C94520E0C94590E0C94520E0E9418
:101CC000470E89E191E10E94D4170E945D0E0C94A9
:101CD0005B0E0E94530E0C94520E0E9406190E9435
:101CE0000A120E947E160C94570E9F92AF92BF92DA
:101CF000CF92DF92EF92FF920F931F93CF93DF93D8
:101D0000CDB7DEB72A970FB6F894DEBF0FBECDBFB2
:101D10000E941F1281110E94210E8BEFA82E81E0DC
:101D2000B82E00E010E0902E802F0E945711D82E80
:101D3000F501C1905F01C826B1F40F5F1F4F063057
:101D4000110589F78FEF89838A831B820E940F19FF
:101D50008160782F9D838C8349815A816B818D812D
:101D60000E9499032FC080910D0281FD0E945D1198
:101D7000E12CFF24F3948C2D8F21F1F00E94500E62
:101D8000882399F0EE829F82DF2081E009F480E0D1
:101D900088870E940F198160782F9A8789874E81E2
:101DA0005F8168858A850E949903F801E550FE4F9E
:101DB0008081F826F08206C0E394FF0CF5E0EF1274
:101DC000DACFBBCF0E94911681110E94340E0E947F
:101DD00029140E94DE179091FA018917B9F00E9428
:101DE000DE178093FA012A960FB6F894DEBF0FBE75
:101DF000CDBFDF91CF911F910F91FF90EF90DF90BA
:101E0000CF90BF90AF909F900C9490032A960FB6FE
:101E1000F894DEBF0FBECDBFDF91CF911F910F9120
:101E2000FF90EF90DF90CF90BF90AF909F9008957C
:101E3000CF93DF930E944210EC01811521E59207B8
:101E400008F045C0811530E5930708F094C0883E3E
:101E5000910528F5803E910508F0F8C0883A910573
:101E600070F4853A910508F07CC08130910509F441
:101E700075C008F4E8C0049708F0E8C0E4C08F3BE0
:101E8000910508F0E0C0C85AD0E0CC0FDD1FC65B5A
:101E9000DE4F0990D881C02DCE019464D8C0811541
:101EA00040E2940758F4811551E0950708F0CEC040
:101EB0008D3E910508F4C7C09065C9C0C11580E486
:101EC000D80708F4C0C0DF70CE01906AC0C0811589
:101ED00025E59207A8F4811534E5930708F095C02D
:101EE000811543E5940708F07BC0811552E59507FD
:101EF00008F061C0D82FCC27CE01816F906AA7C0AF
:101F0000C11589E5D807A0F4C11528E5D20708F066
:101F100082C0C11536E5D30708F095C08C2F0E940A
:101F2000D6108F7190E0D82FCC27CE0190628FC051
:101F3000C1154AE5D40708F474C0CE019056811546
:101F4000904208F080C08D2F8F710E94D610DD273F
:101F5000D0628F71AE01582BCA0179C081E090E048
:101F600076C0C55AD0E0C858DE4F8881C82FD0E06F
:101F7000CE0190646CC074E0969587957A95E1F7F0
:101F8000282F23703C2F337081E090E002C0880F2F
:101F9000991F3A95E2F79C68AC01522B9A019C2F4D
:101FA0009F709695969550E2959FE0011124C90186
:101FB0008C2B9D2B4CC08370992721E030E002C010
:101FC000220F331F8A95E2F79C2F9695969580E213
:101FD000989FE0011124C22BD32BCE019C6837C0FF
:101FE0008370992721E030E002C0220F331F8A95C9
:101FF000E2F79C2F9695969540E2949FE00111247C
:10200000C22BD32BCE019A6822C0D82FCC27CE0169
:10201000846F906A1CC0DC2FCC27CE01806F906A41
:1020200016C08C2F8F700E94D61094E0D695C7955D
:102030009A95E1F7CF70D0E0DC2FCC27D0699E01D4
:10204000282BC90104C080E090E001C0CE01DF91DF
:10205000CF9108952EE1829FC0011124FC0125E05B
:10206000729FE00DF11D1124E60FF11DEE0FFF1F11
:10207000E950FF4F8591949108950E942A100E9483
:10208000180F08958238910569F1B0F481339105F4
:1020900009F46DC048F48932910509F463C08A32AD
:1020A000910509F469C008958533910509F455C077
:1020B00089339105B9F00895833E910569F138F4AB
:1020C000803E9105B1F0823E910509F10895863E6A
:1020D0009105A9F1873E9105B9F1843E910509F07A
:1020E00064C023C020913A0220FD4FC021FD4DC0A5
:1020F000089580913A0280FD44C080913B0280FFA8
:1021000044C080913A0284FD42C083EE4DC080916C
:102110003A0282FF38C0F5CF80913A0282FD33C087
:1021200080913B0280FD31C0ECCF80913B0281FF6A
:1021300032C080913A0284FD2AC087EE35C080917A
:102140003A0283FF26C0F5CF80913A0283FD21C079
:1021500080913B0281FD1FC0ECCF80913A0285FD4A
:102160001CC01DC080913A0285FD19C016C0809127
:102170003A0286FD16C017C080913A0286FD13C050
:1021800010C089E311C082EE0FC080EE0DC080E068
:102190000BC086EE09C084EE07C089E205C085E366
:1021A00003C08AE201C081E390E0089590913A0271
:1021B00092FF0DC0282F2871283019F4877F846082
:1021C00006C0282F2471243011F48B7F886093FF80
:1021D0000DC0282F2871283119F4877E846106C02C
:1021E000282F2471243111F48B7E886120913B02C9
:1021F00020FF0DC0382F3871383019F4877F816087
:1022000006C0382F3171313011F48E7F886021FF84
:102210000DC0282F2871283119F4877E816106C0EE
:10222000282F2171213111F48E7E886194FD877EE3
:10223000089580E008950C946C0D0E941F128FE3A6
:102240009CE90197F1F700C000000E941F1280E096
:102250000E94571180FF04C00E941B110C945C194E
:1022600008950C941D110E94720D811102C00E94EC
:102270001A0E0E947D0D80930D020E94850D909391
:102280003B0280933A020E9431110E94810D682F17
:1022900070E080E090E00E9499076091AD0170913C
:1022A000AE018091AF019091B0010C94D107E82F5D
:1022B000F0E0EE5BFD4F80810895089580EA8A95F5
:1022C000F1F7089500C008950C945E1108950C94E0
:1022D00066110C9467110C9466110C946B11F894B0
:1022E000E82FE295EF70F0E031A1282F2F7081E008
:1022F00090E001C0880F2A95EAF7982F90959323D4
:1023000091A392A1892B82A3789408950F931F9390
:10231000CF93DF93C0E8D1E089918F3F11F00E9405
:102320006F1181E0C638D807B9F7CBE7D1E000E8F4
:1023300011E089918F3F11F00E946F110C171D075A
:10234000C1F7DF91CF911F910F910895CF92DF9246
:10235000EF92FF920F931F93CF93DF938C01C62FC1
:10236000D0E0CE0180589E4F7C01FC0190819F3FC0
:1023700009F447C0D62EF894E92FE295EF70F0E00B
:1023800081A19F7021E030E001C0220F9A95EAF709
:10239000822B81A382A12095282322A378940E94D6
:1023A0006211EBE7F1E040E851E031E0C12C21910E
:1023B0002F3F89F0A22FA295AF70B0E090968C913C
:1023C00090E02F7002C0959587952A95E2F780FDE1
:1023D00002C0832F01C080E0C82A330F4E175F0769
:1023E00031F7F70180818F3F11F00E946F1161E09A
:1023F000C11001C060E08D2D0E946411C00FD11F7B
:10240000C882DF91CF911F910F91FF90EF90DF90E5
:10241000CF9008950E94861186E0E2E4F2E0DF01A9
:10242000982F1D929A95E9F7ECE3F2E0DF011D92F7
:102430008A95E9F786E00E9467120C943B02FF92AE
:102440000F931F93CF93DF9300D000D000D0CDB770
:10245000DEB78E010F5F1F4F86E0F80111928A955B
:10246000E9F7F12C6F2DC8010E94A611F394F6E054
:10247000FF12F8CF46E050E0B8018CE392E00E94F2
:102480007A20FF24F394009709F4F12C892B41F072
:1024900086E0F801ACE3B2E001900D928A95E1F795
:1024A0002F2D46E062E472E08CE392E00E94681215
:1024B0000E9441028F2D26960FB6F894DEBF0FBE04
:1024C000CDBFDF91CF911F910F91FF900895089597
:1024D000FF920F931F93CF93DF938C01F62ED72F8C
:1024E000C42F222349F081E0809310020E940F192B
:1024F00090930F0280930E02809110028823C1F006
:1025000080910E0290910F020E942719059780F08A
:10251000EF2DFD2FD8014C2F50E0CD01801B910BEA
:10252000841795071CF48D918193F7CF10921002B8
:10253000DF91CF911F910F91FF9008950E94121B80
:102540000E946D0E0C941E1B0E94221B0E94750E91
:102550000C943C1B0E9496180E94F91A0E945F0E70
:102560000E949E120E94A4120E94690EFBCF8091CD
:10257000170280FF0BC06091090185E0689FB001E0
:10258000112475956795759567952BC081FF09C0D6
:102590006091090185E0689FB001112475956795E8
:1025A00020C082FF07C06091090185E0689FB001EB
:1025B000112417C0909116029923D1F0609108015F
:1025C000961788F72091090185E0289F9001112432
:1025D000929FA001939F500D112470E0CA010E94A8
:1025E0004C206038710540F46115710519F406C07E
:1025F00065E070E0862F08958FE7089581E00895E3
:102600008091170280FF08C06091050170E0759508
:1026100067957595679521C081FF06C0609105019A
:1026200070E07595679519C082FF04C0609105013F
:1026300070E010C090911502992399F06091040107
:102640009617A0F780910501899FC001112470E0C1
:102650000E944C206038710540F46115710519F431
:1026600006C061E070E0862F08958FE7089581E04D
:1026700008958D3E21F40E94B712819504C08E3ECC
:1026800029F40E94B71280931B0208958F3E21F413
:102690000E94B712819504C0803F29F40E94B712AE
:1026A00080931A020895893F19F40E94001305C00F
:1026B0008A3F31F40E940013819580931C02089593
:1026C0008B3F21F40E940013819504C08C3F29F4B4
:1026D0000E94001380931D0208959FE0980F983088
:1026E00078F421E030E0A90102C0440F551F9A950B
:1026F000E2F7CA0190911902892B8093190208957B
:102700008D3F21F48091170281600BC08E3F21F430
:1027100080911702826005C08F3F29F480911702D3
:1027200084608093170208958D3E39F490911B02C6
:1027300097FF35C010921B0259C08E3E29F490912C
:102740001B021916BCF32BC090911A028F3E29F47C
:1027500097FF25C010921A0249C0803F19F419163C
:10276000CCF31DC090911C02893F29F41916BCF4CA
:1027700010921C023BC08A3F19F497FF10C0F8CF9B
:102780008B3F39F490911D0297FF09C010921D02F2
:102790002DC08C3F21F490911D021916BCF39FE0CF
:1027A000980F983080F421E030E0A90102C0440F76
:1027B000551F9A95E2F7CA018095909119028923D5
:1027C0008093190213C08D3F21F4809117028E7FF0
:1027D0000BC08E3F21F4809117028D7F05C08F3F83
:1027E00029F4809117028B7F8093170280911A023F
:1027F000811106C080911B02811102C01092160245
:1028000080911C02811106C080911D02811102C0BD
:102810001092150208950E940F1920911A02211199
:1028200004C020911B02222321F090931402809374
:10283000130220911C02211104C020911D022223A9
:1028400021F0909312028093110288E192E00C949F
:10285000F517EF92FF920F931F93CF93DF9300D062
:1028600000D000D0CDB7DEB786E0E8E1F2E0DE01CF
:10287000119601900D928A95E1F7E0901A02F0907E
:102880001B0200911C0210911D0210921A0210925C
:102890001B0210921C0210921D02E11003C0FF20C7
:1028A00009F45DC080911302909114020E942719CF
:1028B000AC0190911602992339F020910A0130E081
:1028C0002417350758F04BC020910B018AE0289F50
:1028D000900111242417350718F041C09F3F19F0CB
:1028E0009F5F90931602EE2061F00E94B7121E14B3
:1028F00014F09FEF01C091E0989F902D11249093C8
:102900001A02FF2061F00E94B7121F1414F09FEF0B
:1029100001C091E0989F902D112490931B0230915B
:102920001A023323E1F020911B022223C1F045EB70
:102930003403C0011124992319F090931A0203C0A3
:1029400081E080931A0235EB2303C00111249923FF
:1029500019F090931B0203C081E080931B020111C8
:1029600003C0112309F45DC08091110290911202FD
:102970000E942719AC0190911502992339F02091FA
:10298000060130E02417350758F04BC020910701AD
:102990008AE0289F900111242417350718F041C0C0
:1029A0009F3F19F09F5F90931502002361F00E94F2
:1029B0000013101614F09FEF01C091E0989F902D26
:1029C000112490931C02112361F00E940013111630
:1029D00014F09FEF01C091E0989F902D11249093E7
:1029E0001D0230911C023323E1F020911D022223AD
:1029F000C1F045EB3403C0011124992319F09093E1
:102A00001C0203C081E080931C0235EB2303C0014C
:102A10001124992319F090931D0203C081E0809343
:102A20001D0280911A0281110BC080911B0281113D
:102A300007C080911C02811103C080911D02811189
:102A40000E940B14EB82FC820D831E8386E0FE0144
:102A50003196A8E1B2E001900D928A95E1F72696B1
:102A60000FB6F894DEBF0FBECDBFDF91CF911F919F
:102A70000F91FF90EF900895E8E1F2E086E0DF012A
:102A80001D928A95E9F71092160210921502109283
:102A900017020895CF93DF93EC01FB018281882315
:102AA00009F426C1C430FDE5DF0760F4CB3F9CE5A7
:102AB000D90768F49E0122503C452431310508F0C5
:102AC00018C105C0C236EDE5DE0709F012C10E944B
:102AD000850D90933B0280933A02C031FCE5DF07FD
:102AE00009F4CAC008F041C0C8309CE5D90709F410
:102AF000A4C0F0F4C430FCE5DF0709F48CC068F42E
:102B0000C2309CE5D90709F482C0C330DC4509F026
:102B1000E5C080913A028260DFC0C630FCE5DF0785
:102B200009F483C008F085C080913A028860D4C05F
:102B3000CC309CE5D90709F490C068F4CA30FCE5B4
:102B4000DF0709F47EC008F084C00E943807809136
:102B50003A028068C1C0CE309CE5D90709F481C033
:102B600008F086C080913A0294C0CD3FFCE5DF07B3
:102B700009F47BC038F5C4319CE5D90709F49AC043
:102B800058F4C231FCE5DF0709F47AC008F07EC0D2
:102B900080913A028F7BA0C0CB3F9CE5D907F1F131
:102BA00008F03FC0C531DC4509F098C080913A0279
:102BB00082FB222720F991E0922790FB82F990FB7B
:102BC00083F98AC0C1308DE5D80709F467C050F495
:102BD00080913B02CF3FECE5DE07C1F108F05BC01E
:102BE0008D7F65C0C3308DE5D80709F471C008F446
:102BF0006DC0C236DD4509F071C080913A0284FB98
:102C0000222720F991E0922790FB84F965C08091FA
:102C10003A02816061C080913A0216C080913B0205
:102C200016C080913B02826042C080913A0280616E
:102C300053C080913A0280624FC080913A02806412
:102C40004BC080913A028860846046C08260816097
:102C50002EC080913A028E7F3FC080913A028D7FD4
:102C60003BC080913A02877F37C080913B0214C0FD
:102C700080913A028F7E30C080913A028F7D2CC0C5
:102C80000E94380780913A028F7726C080913A02DD
:102C9000877F8B7F21C08D7F8E7F09C080913B0213
:102CA000982F909591708E7F892B90FB81F980935E
:102CB0003B0214C00E94380780913A0287FB22270A
:102CC00020F991E0922790FB87F906C081E001C0CE
:102CD00080E00E941C0E02C080933A0280913A026A
:102CE00090913B020E94960D0E94380780E001C03F
:102CF00081E0DF91CF9108950C94E20157985F9A9B
:102D000054985C9A89B190E0880F892F881F990B9D
:102D10004C9902C020E001C022E0822B8093200267
:102D2000089520912002220F220F2093200289B1C2
:102D300090E0880F892F881F990B39B134FBEE275B
:102D4000E0F9F0E034FF02C0E2E0F0E0E82BF92B1C
:102D5000E22BE0932002EF70F0E0EA57FE4F908103
:102D600080911F02890F80931F0284305CF0809154
:102D70001E028F5F80931E0260E080E00E947C163E
:102D800021E001C020E080911F028D3F54F480912A
:102D90001E02815080931E0261E080E00E947C163A
:102DA00021E080911F02082E000C990B64E070E076
:102DB0000E944C2080931F02822F0895CF93DF93AF
:102DC00086319C4541F5EB010E94960C982F8A8133
:102DD0002091020130910301882379F09A7A81E0F1
:102DE00009F480E080932102911102C069E201C0E0
:102DF00065E3C9010E9471180AC080912102811106
:102E000002C069E201C065E3C9010E9473180E9413
:102E1000DB0C80E001C081E0DF91CF9108950F933A
:102E20001F93CF93DF93C42FD22FFC01828188237D
:102E3000C9F0409324020E940F19909323028093BB
:102E4000220280E28C0F883008F057C0C77081E002
:102E500001C0880FCA95EAF7DF91CF911F910F91BA
:102E60000C94930480912402481330C08091220274
:102E7000909123020E942719883C910538F510E2B1
:102E80001D0FCD17B9F080E28C0F883040F4C77069
:102E900081E001C0880FCA95EAF70E949A041830B1
:102EA00028F581E09D2F977001C0880F9A95EAF769
:102EB0000E949304802F0E948A041830F0F4D77087
:102EC00081E001C0880FDA95EAF70AC080E28C0F32
:102ED000883098F4C77081E001C0880FCA95EAF77E
:102EE000DF91CF911F910F910C949A04802FDF9165
:102EF000CF911F910F910C948A04DF91CF911F9174
:102F00000F9108950F939C01CB01243F4CE53407AA
:102F100031F188F4293DFCE53F07D9F02A3D4CE525
:102F2000340779F1283D3C45A9F506E221EE41EE52
:102F300068ED7CE52BC0263FFCE53F07E1F0A8F0FB
:102F4000273F3C4539F507E225EE46EE67EF7CE585
:102F50001DC007E225EE45EE69ED7CE517C006E2EF
:102F600021EE40EE64EF7CE511C007E225EE44EE71
:102F700065EF7CE50BC006E221EE42EE66EF7CE5F4
:102F800005C008E221E045EE6AED7CE50E940F17DE
:102F900080E008C0FC018281882319F0109224028D
:102FA00001C081E00F91089590939701809396015D
:102FB000089590932A02809329020895E0912902AE
:102FC000F0912A02309721F00190F081E02D0994D0
:102FD00080E00895E0912902F0912A02309721F0D3
:102FE0000280F381E02D09940895E0912902F09187
:102FF0002A02309739F022E0DC012C930480F5811D
:10300000E02D099408952091270230912802281775
:10301000390771F09093280280932702E0912902EA
:10302000F0912A02309721F00680F781E02D099473
:10303000089520912502309126022817390771F052
:103040009093260280932502E0912902F0912A02B2
:10305000309721F00084F185E02D09940895FC015A
:10306000329697E080E0915029F021912223D9F304
:103070008F5FF9CF0895662349F0FC0132960896D8
:103080002191621729F0E817F907D1F780E0089538
:1030900081E008959C01FC0132969FEF80E0419110
:1030A000461789F09F3F19F4411101C0982F8F5F97
:1030B0008630A9F79F3F39F0F901E90FF11D97FD1F
:1030C000FA956283089508959C012A5F3F4FFC01A1
:1030D0004281461301C01282019682179307B9F705
:1030E00008950C944A180C946418029626E0FC018A
:1030F00011922A95E9F7089508950C947C1883E0BD
:1031000080932B020C947D18811102C081E001C0D4
:1031100082E080932B020C947D180C94841881E03B
:1031200080932B020C947D180C948F180895809135
:103130005002843031F10E94430210922C0220E4AC
:1031400088E190E00FB6F894A895809360000FBED8
:103150002093600083B7817F846083BF83B78160E1
:1031600083BF7894889583B78E7F83BF0FB6F8941A
:10317000A895809160008861809360001092600043
:103180000FBE089508950C94C218CF930E94C318DF
:103190000E941F120E94C218C0E08C2F0E9457117B
:1031A000811104C0CF5FC630C1F701C081E0CF916B
:1031B00008950E9438070C94AC021F920F920FB62C
:1031C0000F9211248F939F93AF93BF9380912C0202
:1031D000811113C08091480290914902A0914A0246
:1031E000B0914B024196A11DB11D8093480290936E
:1031F0004902A0934A02B0934B02BF91AF919F91B5
:103200008F910F900FBE0F901F90189582E084BD94
:1032100093E095BD9AEF97BD80936E0008952FB708
:10322000F8948091480290914902A0914A02B0918D
:103230004B022FBF08952FB7F89460914802709108
:10324000490280914A0290914B022FBF08959C0140
:103250004FB7F8948091480290914902A0914A0298
:10326000B0914B024FBF821B930B089578941F922D
:103270000F920FB60F9211248F939F93AF93BF932A
:103280008091480290914902A0914A02B0914B026C
:103290000196A11DB11D8093480290934902A0930D
:1032A0004A02B0934B02BF91AF919F918F910F90C3
:1032B0000FBE0F901F90189581E08093E00080E290
:1032C0008093D8001092C9008FE19EE40197F1F736
:1032D00000C0000087E090EBDC01809359029093DE
:1032E0005A02A0935B02B0935C029CE088E10FB6A7
:1032F000F894A895809360000FBE90936000FFCF74
:10330000809138020895089522E02093E9002FEF7C
:103310003091E800215035FD06C035ED3A95F1F7C2
:1033200000002111F5CF2091E80025FF0BC040E0FF
:1033300050E066E070E00E94AE1B8091E8008E775E
:103340008093E8000895CF93DF9321E02093E90074
:103350002FEF3091E800215035FD06C035ED3A954C
:10336000F1F700002111F5CF2091E80025FF14C0EE
:10337000EC0140E050E068E070E00E94AE1B8091FC
:10338000E8008E778093E80088E0FE01A0E3B2E0D9
:1033900001900D928A95E1F7DF91CF910895809386
:1033A0002D0270932F0260932E0280915002843080
:1033B00001F582E08093E9008FEF9091E800815061
:1033C00095FD06C095ED9A95F1F700008111F5CFB6
:1033D0008091E80085FF0DC040E050E063E070E0C0
:1033E0008DE292E00E94AE1B8091E8008E77809380
:1033F000E8000895BC0184E00C94CF19BC0183E07F
:103400000C94CF1980914F02811109C00E943F1D79
:103410000E949C1D8091E20084608093E2000895E8
:1034200010924F0208950C94941860914C0281E020
:10343000611101C080E00C947F189091500281E0EE
:10344000943009F080E060914C020C94841842E0C2
:1034500061EC81E00E94B81C42E261EC82E00E94D3
:10346000B81C9091500281E0943009F080E06091A6
:103470004C020C948D1880915202833009F461C083
:1034800030F4813071F0823009F49AC008958A30A6
:1034900009F486C08B3009F46CC0893009F0A8C0EB
:1034A00020C080915102813A09F0A2C08091E800C9
:1034B000877F8093E8008091550290915602892B76
:1034C00021F468E080E392E003C060E080E090E0F7
:1034D00070E00E94F91B8091E8008B778093E800F0
:1034E000089580915102813209F082C08091550285
:1034F00090915602029708F07BC08091E800877F88
:103500008093E8008091E80082FD05C08091500220
:103510008111F8CF6DC02091F3008091F20090E00E
:10352000922B029731F48091F100813011F08630B6
:1035300021F48091F100809338028091E8008B772C
:1035400053C080915102813A09F052C080915502D6
:1035500090915602892B09F04BC08091E800877F3B
:103560008093E8008091E80080FFFCCF80911801F3
:1035700036C0809151028132D9F5809155029091E7
:103580005602892BA9F58091E800877F8093E80097
:103590000E94ED1C80915302809318010C9438070F
:1035A00080915102813221F58091E800877F8093DC
:1035B000E8000E94ED1C8091540280933902089526
:1035C00080915102813AA1F48091E800877F809335
:1035D000E8008091E80080FFFCCF80913902809361
:1035E000F1008091E8008E778093E8000C94ED1C48
:1035F000089584B7877F84BF0FB6F894A89580910B
:103600006000886180936000109260000FBE90E0BF
:1036100080E80FB6F89480936100909361000FBE2C
:103620000C948F180E943F1D0E949C1DE2EEF0E05A
:1036300080818460808378940C9431208CE091E0C8
:103640000C94D917809150028530A9F480915002D2
:10365000853079F40E94971880914E028823B1F347
:103660000E94C518882391F30E94981B0E94380776
:10367000EDCF0C94D918089508950C943F1B292F71
:10368000332723303105C9F060F42130310581F052
:103690002230310509F044C08BE390E02FE032E0A6
:1036A00043C021323105E1F02232310549F138C001
:1036B00082E190E02AE432E037C099278130910519
:1036C00049F028F0029761F5E3EEF1E005C0EBE088
:1036D000F2E002C0E9EFF1E0849190E09F0124C0A4
:1036E0006115710541F061307105D1F489E090E018
:1036F0002AE332E019C089E090E021E232E014C010
:103700006115710541F06130710551F48BE790E06E
:103710002CE532E009C080E490E027ED32E004C0FF
:1037200080E090E020E030E0FA01318320830895CA
:1037300080E189BD82E189BD09B400FEFDCF8091A1
:10374000D8008F7D8093D8008091E00082608093C4
:10375000E0008091E00081FDFCCF0895CF92DF92E0
:10376000EF92FF920F931F93CF93DF93EC018B01A6
:103770007A010E940C1D811133C0E114F10439F06B
:10378000F70180819181081B190BC80FD91FC12C2B
:10379000D12C0115110519F18091E80085FD16C0A5
:1037A0008091E8008E778093E800E114F10449F0FD
:1037B000F70180819181C80ED91ED182C08285E037
:1037C0000FC00E940C1D882321F30AC089918093A9
:1037D000F10001501109FFEFCF1ADF0ADACF80E0C4
:1037E000DF91CF911F910F91FF90EF90DF90CF90DD
:1037F000089520915702309158022617370748F054
:103800006115710539F42091E8002E772093E800C6
:1038100001C0B901FC0120E06115710579F18091C9
:1038200050028823F1F18530F1F18091E80083FDA9
:103830003CC08091E80082FD2EC08091E80080FFAE
:10384000EBCF2091F3008091F20090E0922B611574
:10385000710551F08830910538F421912093F100E1
:10386000615071090196F3CF21E0089709F020E03B
:103870008091E8008E778093E800CECF2111CFCFE2
:103880000AC080915002882361F0853061F08091F8
:10389000E80083FD0AC08091E80082FFF2CF80E05B
:1038A000089582E0089583E0089581E008952091CD
:1038B0005702309158022617370748F061157105F5
:1038C00039F42091E8002E772093E80001C0B90177
:1038D000FC0120E06115710591F18091500288236F
:1038E00009F440C0853009F43FC08091E80083FDB1
:1038F0003DC08091E80082FD2FC08091E80080FFEC
:10390000E9CF2091F3008091F20090E0922B6115B5
:10391000710559F08830910540F424912093F1000D
:103920003196615071090196F2CF21E0089709F0B4
:1039300020E08091E8008E778093E800CBCF2111C2
:10394000CCCF0AC080915002882361F0853061F0AD
:103950008091E80083FD0AC08091E80082FFF2CFE9
:1039600080E0089582E0089583E0089581E008955D
:10397000982F973068F59093E900981739F0709177
:10398000EC002091ED005091F00003C0242F762F21
:1039900050E021FD02C09F5FECCF3091EB003E7FF5
:1039A0003093EB003091ED003D7F3093ED0030918E
:1039B000EB0031603093EB007093EC002093ED004E
:1039C0005093F0002091EE0027FDE5CF80E00895B0
:1039D0008F708093E90081E008958091510287FF04
:1039E00011C08091E80082FD05C0809150028111D4
:1039F000F8CF11C08091E8008B770BC08091500206
:103A0000882349F08091E80080FFF8CF8091E8009A
:103A10008E778093E80008952091E4003091E500CE
:103A200095E64091EC00842F817040FF23C0809187
:103A3000E80080FD1DC080915002882399F08530F8
:103A400099F08091EB0085FD11C04091E400509108
:103A5000E5002417350729F3915011F09A01E1CFC1
:103A600084E0089582E0089583E0089581E0089558
:103A700080E008954091E80042FFDDCF08950E9464
:103A8000AD1D0E94B51DE0EEF0E080818160808375
:103A9000E8EDF0E080818F77808319BCA7EDB0E07E
:103AA0008C918E7F8C9380818F7E808310924F02C9
:103AB00008950F931F93CF93DF930E94AD1D0E9433
:103AC000B51DC8EDD0E088818F77888388818068B4
:103AD000888388818F7D888319BC10925002109250
:103AE0004C0210924E0210924D0200EE10E0F801CE
:103AF00080818B7F808388818160888342E060E061
:103B000080E00E94B81CE1EEF0E080818E7F80832F
:103B1000E2EEF0E080818160808380818860808334
:103B2000F80180818E7F8083888180618883DF9126
:103B3000CF911F910F910895E8EDF0E080818F7E85
:103B40008083E7EDF0E080818160808384E082BF44
:103B500081E080934F020C94591DE8EDF0E08081E4
:103B60008E7F80831092E20008951092DA00109206
:103B7000E10008951F920F920FB60F9211242F9318
:103B80003F934F935F936F937F938F939F93AF93E5
:103B9000BF93EF93FF938091E10082FF0BC0809170
:103BA000E20082FF07C08091E1008B7F8093E100FB
:103BB0000E9430208091DA0080FF1FC08091D800E1
:103BC00080FF1BC08091DA008E7F8093DA008091A5
:103BD000D90080FF0DC080E189BD82E189BD09B4B3
:103BE00000FEFDCF81E0809350020E94021A05C0C2
:103BF00019BC109250020E94101A8091E10080FFBF
:103C000019C08091E20080FF15C08091E2008E7F94
:103C10008093E2008091E20080618093E2008091D5
:103C2000D80080628093D80019BC85E08093500250
:103C30000E94151A8091E10084FF30C08091E2005B
:103C400084FF2CC080E189BD82E189BD09B400FEFA
:103C5000FDCF8091D8008F7D8093D8008091E100C6
:103C60008F7E8093E1008091E2008F7E8093E2005E
:103C70008091E20081608093E20080914C02882371
:103C800011F084E007C08091E30087FD02C081E06D
:103C900001C083E0809350020E941D1A8091E100D0
:103CA00083FF29C08091E20083FF25C08091E1005D
:103CB000877F8093E10082E08093500210924C0253
:103CC0008091E1008E7F8093E1008091E2008E7F01
:103CD0008093E2008091E20080618093E20042E004
:103CE00060E080E00E94B81C8091F00088608093C2
:103CF000F0000E94131AFF91EF91BF91AF919F9135
:103D00008F917F916F915F914F913F912F910F9084
:103D10000FBE0F901F9018951F920F920FB60F9223
:103D200011242F933F934F935F936F937F938F93C0
:103D30009F93AF93BF93CF93DF93EF93FF93C09184
:103D4000E900CF708091EC00D82FD17080FDD0E8D1
:103D50001092E9008091F000877F8093F0007894C2
:103D60000E94D01E1092E9008091F000886080933C
:103D7000F000CD2BCF70C093E900FF91EF91DF9160
:103D8000CF91BF91AF919F918F917F916F915F91F3
:103D90004F913F912F910F900FBE0F901F9018954C
:103DA0001F93CF93DF93CDB7DEB7AA970FB6F894E2
:103DB000DEBF0FBECDBFE1E5F2E08091F10081935F
:103DC00022E0E935F207C9F70E943B1A8091E8002A
:103DD00083FF2EC18091510290915202492F50E0F1
:103DE0004A30510508F024C1FA01E059FF4F0C9404
:103DF0006020803821F0823809F01AC108C0809113
:103E00004D0290914E02992389F082600FC08091FB
:103E100055028F70873008F00BC18093E9008091C4
:103E2000EB0085FB882780F91092E9009091E8006B
:103E3000977F9093E8008093F1001092F100D1C039
:103E4000282F2D7F09F0F4C0882319F0823061F00B
:103E5000EFC080915302813009F0EAC0933009F03D
:103E600080E080934E022EC08091530281112AC0BF
:103E7000809155028F702FEF280F263008F0D8C0A0
:103E80008093E9002091EB0020FF1CC0933021F4C7
:103E90008091EB00806214C09091EB009061909350
:103EA000EB0021E030E0A90102C0440F551F8A95C4
:103EB000E2F74093EA001092EA008091EB008860FC
:103EC0008093EB001092E9008091E800877F809357
:103ED000E8000E94ED1CACC08111AAC010915302F1
:103EE0001F778091E3008078812B8093E30080919D
:103EF000E800877F8093E8000E94ED1C8091E80035
:103F000080FFFCCF8091E30080688093E300111173
:103F100002C082E001C083E08093500289C08058D3
:103F2000823008F085C080915302909154028C3DFC
:103F300053E0950779F583E08A838AE289834FB756
:103F4000F894DE01139620E03EE051E2E32FF0E02A
:103F500050935700E49120FF03C0E295EF703F5F5C
:103F6000EF708E2F90E0EA3010F0C79601C0C09637
:103F70008D939D932F5F243149F74FBF8091E800C7
:103F8000877F8093E8006AE270E0CE0101960E948C
:103F9000F91B16C06091550270915602AE014F5F39
:103FA0005F4F0E943D1BBC01892B09F441C09091D9
:103FB000E800977F9093E80089819A810E94571CBE
:103FC0008091E8008B778093E80032C0803881F5DB
:103FD0008091E800877F8093E80080914C02809375
:103FE000F1008091E8008E7772CF811121C080911D
:103FF00053029091540299270297D4F48091E800DB
:10400000877F8093E8008091530280934C020E9446
:10401000ED1C80914C02811106C08091E30087FD68
:1040200002C081E001C084E0809350020E94271A00
:104030008091E80083FF0AC08091E800877F809329
:10404000E8008091EB0080628093EB00AA960FB6A7
:10405000F894DEBF0FBECDBFDF91CF911F910895C1
:104060000895CF93809150028823A1F0C091E90078
:10407000CF709091EC00892F817090FD80E8C82B63
:104080001092E9008091E80083FD0E94D01ECF705D
:10409000C093E900CF91089597FB072E16F4009482
:1040A00007D077FD09D00E94662007FC05D03EF4BA
:1040B000909581959F4F0895709561957F4F0895D4
:1040C000EE0FFF1F0590F491E02D0994AA1BBB1B76
:1040D00051E107C0AA1FBB1FA617B70710F0A61B08
:1040E000B70B881F991F5A95A9F780959095BC0129
:1040F000CD010895FB01DC0104C08D910190801970
:1041000021F441505040C8F7881B990B0895F99944
:10411000FECF92BD81BDF89A992780B50895A8E198
:10412000B0E042E050E00C94BB20262FF999FECF7E
:1041300092BD81BDF89A019700B4021639F01FBAFA
:1041400020BD0FB6F894FA9AF99A0FBE0895039617
:10415000272F0E9496200E949520252F0E949620AE
:10416000242F0C9496200196272F0E9496200C94C1
:104170009520DC01CB01FC01F999FECF06C0F2BD10
:10418000E1BDF89A319600B40D9241505040B8F715
:064190000895F894FFCF32
:10419600C800EF012808641E140A321E8019A319EC
:1041A6008419FE19FA19831901E200E900EA00B53B
:1041B60000B600B700CD008301CC008A01920194BD
:1041C600012102230224022502260227022A02B323
:1041D60000B4006F007000818283E200E900EA000B
:1041E600B500B600B700CD008301CC008A0192016C
:1041F60094012102230224022502260227022A0212
:10420600B300B4006F007000818283F4F5F6353692
:1042160034F76766F1F000FF0100010000FFFF00C0
:0642260000010001FF0091
:00000001FF
