:100000000C9432010C9479010C9479010C947901CF
:100010000C9479010C9479010C9479010C94790178
:100020000C9479010C9479010C947F1C0C94511D53
:100030000C94A2170C9479010C9479010C94790119
:100040000C9479010C9479010C9479010C94790148
:100050000C9479010C94FB170C9479010C947901A0
:100060000C9479010C9479010C9479010C94790128
:100070000C9479010C9479010C9479010C94790118
:100080000C9479010C9479010C9479010C94790108
:100090000C9479010C9479010C9479010C947901F8
:1000A0000C9479010C9479010C947901A103A103BA
:1000B000CD03CD03350453046B056B055E04F704D3
:1000C000080508050F060F06210621061806210659
:1000D000210621060F060F061D06210621061D0614
:1000E000BE1DE51DDD1EE51DDD1E311E541EDD1E7F
:1000F000AB1EBA1EAE00AC00AB00A800000053005F
:1001000054005500560000005F00600061000000D0
:1001100057005C005D005E000000000059005A00BE
:100120005B00000058000000620000006300000057
:10013000140372006D005F006E0075006D007000AA
:10014000610064000000100352004D004B00650088
:1001500065006200730000000403090409023B000B
:10016000020100A0FA0904000001030101000921B5
:10017000110100012240000705810308000A09045B
:1001800001000103000000092111010001227B0090
:100190000705820320000A1201000200000008ED9A
:1001A000FE4E5201000102000105010902A1018574
:1001B000020901A100050919012908150025019569
:1001C00008750181020501093009311581257F95E6
:1001D000027508810609381581257F95017508810A
:1001E00006050C0A38021581257F950175088106E0
:1001F000C0C005010980A101850319012AB70015B6
:100200000126B700950175108100C0050C0901A1F8
:1002100001850419012AA002150126A00295017585
:10022000108100C005010906A101050719E029E7B1
:100230001500250195087501810295017508810158
:100240000507190029FF150026FF0095067508818E
:10025000000508190129059505750191029501759B
:10026000039101C011241FBECFEFDAE0DEBFCDBF86
:1002700004B603FE27C08091590290915A02A091C2
:100280005B02B0915C028730904BA740B04BD1F439
:100290001092590210925A0210925B0210925C0264
:1002A00014BE84B7877F84BF0FB6F894A895809159
:1002B0006000886180936000109260000FBEE0E0F3
:1002C000F8E3099511E0A0E0B1E0E0E2FFE302C04D
:1002D00005900D92A639B107D9F722E0A6E9B1E061
:1002E00001C01D92A935B207E1F70E946F110C946D
:1002F0008E1F0C940000662311F089EA01C08AEA7F
:100300000E944F0380E0089581E0089581E0089500
:100310000C94860108950C948A011F93CF93DF9368
:1003200000D000D01F92CDB7DEB749835A836B83CC
:100330003091980189819A81311114C0662359F056
:10034000222349F00E94B507182F682F89819A81CE
:100350000E945C0703C00E948807182F69817A8178
:10036000812F04C00E94B50769817A810F900F9098
:100370000F900F900F90DF91CF911F910C94EF0E83
:10038000FC01262F408151816281738184810C940C
:100390008D0181E00895CF93DF93EC0160E00E942E
:1003A000C001BE01DF91CF910C948B010E94F80F28
:1003B0000E9454020C9432100C942E1080E00C9485
:1003C000550208950C94E1010E94FD050E94E2018E
:1003D0002FEF84E39CE0215080409040E1F700C083
:1003E00000000C9421180F931F93CF93DF938C017F
:1003F00061E00E94C001EC01B8010E9488018823DD
:10040000F1F1B801CE010E9447168823C1F1B8016D
:10041000CE010E940F14882391F1B801CE010E94F1
:10042000A315882361F1F8018281882309F1CB3576
:100430008DE5D807C1F050F4C115FCE5DF0781F068
:10044000CF3DDC45A9F40E94DF0C19C0CC35EDE5A9
:10045000DE0761F0CD35DD4559F40E94220C08C05D
:100460000E94E4010CC00E942B0C02C00E942E0CC2
:10047000C801DF91CF911F910F910C94840180E00E
:10048000DF91CF911F910F9108950C94E1010E948B
:10049000A3160E9455020C94450208950C944D0237
:1004A00081E008950C9450020895CF93C82F0E94C4
:1004B0004E028C2F0E945202CF910895CF93DF936A
:1004C000CDB7DEB72B970FB6F894DEBF0FBECDBF0A
:1004D0004F83588769877A878B8761110E947B0BCE
:1004E0009E012F5F3F4F86E0F90111928A95E9F74F
:1004F00085E0FE013796D90101900D928A95E1F7CA
:1005000089819A814C815D81452B31F09F3F31F487
:1005100091E08F3F19F403C091E001C090E090FF9B
:1005200009C049815A816B817C818D819E810E94A5
:100530009C0A05C0C9010E94C9018111F2CF2B9606
:100540000FB6F894DEBF0FBECDBFDF91CF910895F7
:10055000FC01808191810E94F7070895CF93882341
:1005600009F450C0C82F8CEF8C0F813AD0F46C2F57
:1005700080910201909103010E940017882349F0A5
:100580006C2F80910201909103010E9438170E9404
:10059000A00B6C2F80910201909103010E943617ED
:1005A0000CC080E28C0F883058F4C77081E001C025
:1005B000880FCA95EAF70E945E0BCF910C94A00BAE
:1005C000EBE5EC0FE33040F4F0E0E95BFE4F8081B7
:1005D00090E0CF910C94C816E8E5EC0FE73150F4A9
:1005E000F0E0EE0FFF1FE75EFE4F80819181CF911B
:1005F0000C94DE16CD3E30F08C2F0E94FE11CF9170
:100600000C94D012CF910895882389F19CEF980F14
:10061000913A40F4682F80910201909103010E9469
:1006200038170DC090E2980F983058F4877091E019
:1006300001C0990F8A95EAF7892F0E94640B0C94E8
:10064000A00B9BE5980F933020F480E090E00C9491
:10065000C81698E5980F973120F480E090E00C944C
:10066000DE168D3E20F00E9459120C94D01208958F
:100670001F93CF93DF93182FEB010E94AE022097B8
:1006800041F08FE99FE00197F1F700C0000021974A
:10069000F6CF812FDF91CF911F910C940403893302
:1006A00019F060E070E002C060E570E00C9438037F
:1006B000882321F00E945E0B0C94A00B08958823E0
:1006C00021F00E94640B0C94A00B0895CF92DF924E
:1006D000EF92FF920F931F93CF93DF937C01D62F5E
:1006E000C72FFC011281058102950F700E94540BE7
:1006F0008823B9F01123A9F08C2F807F803421F05A
:1007000080E28D0F883068F080913B0282FD09C045
:1007100082E00E94F00B0E94540B91E0D82ED92663
:1007200001C0D12CCC2EC2948FE0C8228C2D90E039
:100730008C30910508F0CFC1FC01EA5AFF4F0C94B0
:10074000251F8C2F807FCF70882311F0C295C07F2A
:10075000112399F0CC2309F4AAC180E28D0F8830CF
:1007600010F0D11104C08C2F0E945E0B03C08C2F9F
:100770000E946E0B0E94A00B9AC18D2F0E94040351
:10078000CC2309F4A8C180E28D0F883038F1DD2335
:1007900029F18C2F0E94740B24C08C2F807FCF7086
:1007A000803211F0C295C07FDD2319F0D130A1F164
:1007B0003DC080913B0282FF17C0112349F0CC233A
:1007C00029F08C2F0E945E0B0E94A00B80E070C16C
:1007D00080E00E940403CC2309F47DC18C2F0E9489
:1007E000640B0E94A00B77C1112371F0002341F02C
:1007F000013031F40E94810B8C2B0E94890B6BC15C
:100800000E94810B8C2B1DC0002319F0013009F4CC
:1008100062C10E94960B25C0112321F0063008F01A
:100820005AC10EC0053008F056C11BC0112361F03B
:10083000002331F0F701858180FF39C18F708583F6
:100840008C2F0E94580347C1002359F0D93309F077
:100850003FC1FFEF07EE13E0F15000401040E1F719
:1008600035C18C2F0E945F0336C18C2F86958695EB
:10087000837019F0813061F02EC1112321F08D2F8A
:100880009C2F937002C080E090E00E94C8162BC19C
:10089000112321F08D2F9C2F937002C080E090E0F7
:1008A0000E94DE1620C18D2F112319F00E94FE1127
:1008B00002C00E9459120E94D01215C18C2F837061
:1008C00009F047C011110BC12D2F229526952770D5
:1008D000220F220F6D2F6F70862F90E0A0E0B0E006
:1008E000022E04C0880F991FAA1FBB1F0A94D2F7BB
:1008F000D4FF10C04FE050E060E070E004C0440F4F
:10090000551F661F771F2A95D2F740955095609521
:10091000709503C040E050E0BA01C695C695C3701B
:100920008A019B01082B192B2A2B3B2BC901B801EB
:10093000C23049F058F4C13019F00E947206CFC09D
:100940000E946006CCC00E948406C9C00E945E0658
:10095000C6C0112319F08C2F817001C086958823A1
:1009600009F4BDC02D2F229526952770220F220F46
:100970006D2F6F70862F90E0A0E0B0E0022E04C0D3
:10098000880F991FAA1FBB1F0A94D2F7D4FF10C06B
:100990004FE050E060E070E004C0440F551F661F58
:1009A000771F2A95D2F7409550956095709503C0B2
:1009B00040E050E0BA01C695C695C3708A019B011C
:1009C000082B192B2A2B3B2BC901B801C23049F047
:1009D00058F4C13019F00E94370781C00E942507E2
:1009E0007EC00E9449077BC00E94980678C0CF70E5
:1009F000112339F08C2F0E94BE068D2F0E945803C0
:100A00006EC08D2F0E945F038C2F0E94DF0667C08F
:100A1000D23F21F128F4D03F41F0D13FC1F043C093
:100A2000D33F19F1D43F79F03EC0112341F0053096
:100A300008F051C08C2F8F710E9404074CC0063003
:100A400008F049C0F7CF80913B0282FF18C0112304
:100A500039F08C2F8F710E94BE063DC01123C9F35F
:100A60008C2F8F710E94DF0636C0112329F08C2F46
:100A70008F710E94A9062FC00E94A4062CC01123CA
:100A800049F0CF718C2F0E94BE0663E08C2F0E942C
:100A9000D50B21C081E00E94F00B0230E0F082E033
:100AA0000E94F00B18C0112331F0002391F28D2F1A
:100AB0000E94AE0210C0002399F2D93349F41FEF0F
:100AC00027EE33E0115020403040E1F700C0000035
:100AD0008D2F0E94040388EF8C0D843020F40E9437
:100AE000A3160E945502DD20C9F00E94500B80FD24
:100AF00015C0F70112820E944A0B0E94BE06C70170
:100B00000E94AF050E944A0BDF91CF911F910F9178
:100B1000FF90EF90DF90CF900C94DF06DF91CF91A4
:100B20001F910F91FF90EF90DF90CF9008950F935A
:100B30001F93CF93DF93EC01688179818A810E94B2
:100B400002088C010E945B070E944C06B801CE018E
:100B50000E946603DF91CF911F910F910895CF936B
:100B6000DF93EC01988189812B813C81232B31F02B
:100B70008F3F31F481E09F3F19F403C081E001C051
:100B800080E080FD1DC0CE010E94F301811110C0E4
:100B90000E94540B8823A1F08A81882389F08091D8
:100BA0003B0282FD0DC082E0DF91CF910C94F00BEF
:100BB000CE010E949705CE01DF91CF910C94CB011D
:100BC000DF91CF91089580E090E00E94C81680E008
:100BD00090E00E94DE160E947B0B0E947E0B0E941A
:100BE000A00B0E9401140C94D012809102019091EC
:100BF00003010E943A170C94E3050E946B0B0C94BE
:100C0000F505E92FE295EF704E2F50E0FA0132978B
:100C1000EE30F105B0F4EE59FF4F0C94251F803FE4
:100C200091F018F4883E68F40EC0843F51F40BC074
:100C3000883E48F0813F29F406C093FB882780F95D
:100C4000089580E0089581E00895FC0180819181FC
:100C50000E94F7070E9401060895CF93DF9300D00A
:100C600000D01F92CDB7DEB70F900F900F900F906E
:100C70000F90DF91CF910895CF93DF9300D000D0F4
:100C800000D0CDB7DEB726960FB6F894DEBF0FBE04
:100C9000CDBFDF91CF910895089508950C944D062E
:100CA0000C944E060E9450066093B1017093B201FD
:100CB0008093B3019093B4010C94E3050C94520615
:100CC0000F931F930091B1011091B2012091B301D4
:100CD0003091B401602B712B822B932B1F910F91BC
:100CE0000C9452060F931F930091B1011091B20121
:100CF0002091B3013091B4016023712382239323A7
:100D00001F910F910C9452060F931F930091B10104
:100D10001091B2012091B3013091B4016027712785
:100D2000822793271F910F910C9452060C944D0625
:100D30000E9496066093AD017093AE018093AF015F
:100D40009093B0010C94E30560E070E0CB010C944B
:100D500098060F931F9341E050E060E070E08A0135
:100D60009B0104C0000F111F221F331F8A95D2F769
:100D7000C901B8011F910F910C9498060F931F930E
:100D800041E050E060E070E004C0440F551F661F72
:100D9000771F8A95D2F78091AD019091AE01A09115
:100DA000AF01B091B0018A019B01082B192B2A2BAE
:100DB0003B2BC901B8011F910F910C9498060F931A
:100DC0001F9341E050E060E070E004C0440F551F05
:100DD000661F771F8A95D2F740955095609570955C
:100DE0008091AD019091AE01A091AF01B091B001A1
:100DF0008A019B01082319232A233B23C901B80137
:100E00001F910F910C9498060F931F9341E050E0AF
:100E100060E070E004C0440F551F661F771F8A957D
:100E2000D2F78091AD019091AE01A091AF01B09148
:100E3000B0018A019B01082719272A273B27C901EE
:100E4000B8011F910F910C9498060F931F93009176
:100E5000AD011091AE012091AF013091B001602B36
:100E6000712B822B932B1F910F910C9498060F934B
:100E70001F930091AD011091AE012091AF0130910F
:100E8000B00160237123822393231F910F910C944F
:100E900098060F931F930091AD011091AE01209120
:100EA000AF013091B00160277127822793271F91EE
:100EB0000F910C949806089524E0929F900D1124B0
:100EC000890FE82FE695E695E695877051E001C019
:100ED000550F8A95EAF785E0E89FF0011124E7565F
:100EE000FE4F20E030E070E04081CB01022E02C0D6
:100EF000969587950A94E2F78170819584278523DA
:100F0000842781932F5F3F4F2530310569F708957E
:100F100024E0929F900D1124890F682F66956695A5
:100F20006695982F977085E0689FB001112440E086
:100F300050E080E0FB01E40FF51FE756FE4F2081F3
:100F400030E0092E02C0369527950A94E2F7217009
:100F50003327042E01C0220F0A94EAF7822B4F5F39
:100F60005F4F4530510531F70895BF92CF92DF9220
:100F7000EF92FF920F931F93CF93DF938C01C0905A
:100F8000AD01D090AE01E090AF01F090B001809142
:100F9000B1019091B201A091B301B091B401C82AFE
:100FA000D92AEA2AFB2ACFE1D0E0D701C6010C2ECC
:100FB00004C0B695A795979587950A94D2F780FDBA
:100FC00004C0219790F7B12C07C0BC2EB8018C2F1C
:100FD0000E94020F0197A9F38B2DDF91CF911F91F2
:100FE0000F91FF90EF90DF90CF90BF900895CF9337
:100FF000DF93EC010E94B507BE010E94020FDF9152
:10100000CF9108951F93CF93DF93EB0190919801B7
:10101000992321F0CB010E94F70713C0882349F0E0
:10102000CB010E94B507182F682FCE010E945C07E4
:1010300004C0CB010E948807182FBE01812F0E9497
:10104000020FDF91CF911F9108951F93CF93DF93EC
:10105000C091B50116E08091B601C81799F0D0E0B3
:101060001C9FF0011D9FF00D1124E954FE4F40819B
:10107000518162817381848195810E943C06219611
:10108000C770E9CFDF91CF911F9108954091E7019B
:101090005091E8016091E9017091EA018091EB01C2
:1010A0009091EC010C943C06EF92FF920F931F93EA
:1010B000CF93DF938091EC0182958F7009F065C02A
:1010C0008091E901882309F460C08091B501F09016
:1010D000B6011091E7010091E8016091EA01709179
:1010E000EB0191E01F3F09F090E0C0910001D09129
:1010F0000101292F96E0E92E8F1509F446C06115EC
:10110000710521F00F3F21F030E003C031E001C054
:10111000322F90E030FD36C0E89EF001E99EF00DE0
:101120001124DF01A954BE4F11963C911197301341
:1011300029C03C91311326C012963C91129731116F
:1011400021C013964D915C911497461B570B4C1779
:101150005D07C0F48091EC018F7080618093EC0199
:10116000E454FE4F80818F708061808387EE91E030
:101170000E94AF05DF91CF911F910F91FF90EF90EB
:101180000C94250801968770B7CFDF91CF911F91FE
:101190000F91FF90EF9008959F92AF92BF92CF92E0
:1011A000DF92EF92FF920F931F93CF93DF93CDB710
:1011B000DEB761970FB6F894DEBF0FBECDBF8C01CE
:1011C00085E0F801DE011D9601900D928A95E1F708
:1011D000D8011296EC909091E701E091E8012091FE
:1011E000EA013091EB012115310531F0EF3F31F487
:1011F00081E09F3F19F403C081E001C080E0B82F77
:10120000B1709B2E80FD47C1D8014C9111965C9125
:1012100011971396AD90BC90149787EEC82E81E07D
:10122000D82EF090E901B501621B730B20910001EB
:1012300030910101FF2009F4D9C08091EC016217BF
:10124000730708F095C0282F207F09F052C05E1365
:1012500013C0491311C0FE2CE1100EC08F708061C5
:101260008093EC010E944608C6010E94AF05809160
:10127000EC01F80185834DC1AB2831F05F3F31F4BB
:1012800081E04F3F19F403C081E001C080E080FDA0
:1012900003C081E08E2502C080E090E0F82FF1705D
:1012A000FF2E80FF1CC08091B5012091B60136E071
:1012B000821709F40BC190E0389FF001399FF00DBF
:1012C0001124E954FE4F6181561306C06081461314
:1012D00003C06281E61203C001968770E9CFFE2C3D
:1012E000EE2009F416C18091EC0181608093EC013D
:1012F00054C05E1306C0491304C0E11002C0F801D7
:1013000099C0C8010E942506882361F1EE2051F1A1
:101310002091EC01822F82958F7090E0029774F0FB
:101320008091E7019091E80198878F831986BB86A9
:10133000AA862C87CE0107960E94AF0586E0F801A9
:10134000A7EEB1E001900D928A95E1F70E94540852
:101350000E9446080AC05E1711F1C8010E942506C6
:1013600081112CC0C8010E94AF05FF24F394D1C0A5
:10137000282F207F81F77A2DB98AA88A6E2D898936
:101380000E942D0687EE91E00E94AF0586E0D6010F
:101390001D928A95E9F70E944608F12CBAC04913BC
:1013A000DCCFE110DACFF8018583C8010E94AF05D8
:1013B00086E0D6011D928A95E9F7ABC0EE2091F246
:1013C0002091EC01822F82958F7090E002970CF4AF
:1013D000B5CF8091E7019091E8019A8389831B82C0
:1013E000BD82AC822E83CE010196A6CF6217730711
:1013F00008F044C0FE2CEE2009F4B4CF5E1330C0D8
:1014000049132EC02091EC0120FD21C0822F82952E
:101410008F70482F50E041155105C9F0F801258320
:101420004F30510541F08F5F982F9295907F822F1A
:101430008F70892B8583C8010E94AF0586E0F80173
:10144000A7EEB1E001900D928A95E1F73CC086E0ED
:10145000F801A7EEB1E001900D928A95E1F759C02D
:10146000C8010E942506811169CF8091EC0181603D
:101470008093EC01C8010E94AF054BC07A2DB98A58
:10148000A88A6E2D89890E942D0686E0D6011D92BC
:101490008A95E9F718C0EE2009F464CFC8010E94CC
:1014A0002506F82E882309F45DCF86E0F801A7EE23
:1014B000B1E001900D928A95E1F787EE91E00E94EC
:1014C000A8020E9454080E94460823C04D875E87E8
:1014D0008D859E850E94F707292F22952F70223037
:1014E00028F49F7039F0811105C00BC0243028F416
:1014F0009F7049F4805E883020F0C8010E94AF05DB
:101500009F2CF92C06C0D80115969C91907F91F7DD
:10151000F8CF8F2D61960FB6F894DEBF0FBECDBF0A
:10152000DF91CF911F910F91FF90EF90DF90CF90BF
:10153000BF90AF909F9008951F93CF93DF93CDB747
:10154000DEB72C970FB6F894DEBF0FBECDBF4F832A
:10155000588769877A878B879C87CE0107960E9478
:10156000CC088823D1F09F8188852A853B85232B51
:1015700031F08F3F31F481E09F3F19F403C081E0E7
:1015800001C080E080FD47C04F81588569857A851C
:101590008B859C850E943C063EC086E0FE01379606
:1015A000DE01119601900D928A95E1F7FF81E885A1
:1015B0006A857B856115710531F0EF3F31F481E07B
:1015C000FF3F19F403C081E001C080E080FD23C02B
:1015D0002091B60130E0C9010196877099274091AA
:1015E000B50150E084179507F1F1F983EA837D8313
:1015F0006C8396E0929FD001939FB00D1124A95463
:10160000BE4FFE01319601900D929A95E1F78093BD
:10161000B6010E94250816E08091B5019091B601AF
:10162000891771F1189FC001112489549E4F0E949F
:10163000CC08882329F1E091B5011E9FF001112407
:10164000E954FE4F4081518162817381848195818B
:101650000E943C068091B50190E001968770992721
:101660008093B501D9CF0E94FD051092B60110926A
:10167000B501E7EEF1E086E0DF011D928A95E9F71A
:101680002C960FB6F894DEBF0FBECDBFDF91CF9181
:101690001F9108958091ED01859585958595089513
:1016A0008091ED01877008959091ED01977081E030
:1016B00009F480E008958091F90108959091F9016D
:1016C000892B8093F901089580959091F9018923E0
:1016D0008093F90108951092F90108959091F8010D
:1016E000892B8093F801089580959091F8018923C2
:1016F0008093F80108951092F80108951092F7016F
:1017000008958091EE01089508950C94840B0C9433
:10171000850B90913B0292FD08C09091EE019817C5
:1017200021F08093EE010C94870B08958091EE01D7
:10173000882329F01092EE0180E00C94870B089525
:10174000E0910201F09103018091F9018083E09121
:101750000201F091030190818091F801892B80832F
:10176000E0910201F091030190818091F701892BB2
:1017700080838091EE01882381F0E0910201F09155
:1017800003019081892B8083809102019091030154
:101790000E94F41681110E94960B80910201909193
:1017A00003010C94AF160C94840B90913B0292FDB4
:1017B00010C098E0899F90011124262B2093ED0101
:1017C0000E94BE068091ED018595859585950C94C6
:1017D000D30B0C94BE061092ED0180E00C94D30B59
:1017E0002091ED01809582238093ED01982F9770D1
:1017F00099F430E0482F082E000C550B24173507BC
:1018000059F090913B0292FD07C08595859585958D
:101810000E94DF060C94EB0B089590913B0292FB23
:10182000222720F9281769F080FB92F990933B0258
:1018300080913A0290913B020E945B0C82E00C94F2
:10184000F00B089580913B0282FB882780F991E09C
:1018500089270C940D0C81E00C940D0C80E00C9405
:101860000D0C6FEF7FEF80E090E00C94781F80E02C
:1018700090E00E94541F21E0893E9E4F09F020E035
:10188000822F089582E090E00C944C1F83E090E05A
:101890000C944C1FCF9384E090E00E944C1FC82F03
:1018A00082E290E00E944C1F2C2F30E0A901582BBF
:1018B000CA01CF910895CF93C92F682F84E090E09B
:1018C0000E945A1F6C2F82E290E0CF910C945A1F15
:1018D000AB01BC018FE090E00C946C1FAB01BC012C
:1018E00083E190E00C946C1F60E070E0CB010C94FD
:1018F0006E0C60E070E0CB010E94680C0C94740CDC
:1019000069EE7EEF80E090E00E94781F60E082E068
:1019100090E00E945A1F60E083E090E00E945A1F0E
:101920001092B1011092B2011092B3011092B40161
:1019300060E084E090E00E945A1F60E082E290E064
:101940000E945A1F60E085E090E00E945A1F60E00C
:1019500086E090E00E945A1F6FEF87E090E00E94BF
:101960005A1F40E050E0BA0188E090E00E946C1FEE
:1019700060E08DE090E00E945A1F40E050E0BA0124
:1019800088E190E00E946C1F60E087E190E00E9497
:101990005A1F40E050E0BA018CE190E00E946C1FB9
:1019A00060E070E080E290E00E94781F40E050E04C
:1019B000BA0188E190E00E946C1F0C94790C0C94A1
:1019C000800C682F8EE090E00C945A1F0E94E01764
:1019D0006093090270930A0280930B0290930C02A9
:1019E00060930502709306028093070290930802A9
:1019F00008950E94E0176093090270930A02809391
:101A00000B0290930C026093010270930202809388
:101A1000030290930402089585B7806885BF85B757
:101A2000806885BF089581E008950C94130D089592
:101A30000C94170D0C94170D0C941A0D0C94170D93
:101A40000C941E0D0C94170D0E940C0D8EED9FE052
:101A50000E9499160E94220D0C94200D0E94180DD0
:101A60000C94170D0E94CB170E94CF100E944315B3
:101A70000C941C0D9F92AF92BF92CF92DF92EF9287
:101A8000FF920F931F93CF93DF93CDB7DEB72A97C3
:101A90000FB6F894DEBF0FBECDBF0E94E4108111D7
:101AA0000E94E60C8BEFA82E81E0B82E00E010E03B
:101AB000902E802F0E941C10D82EF501C1905F013E
:101AC000C826B1F40F5F1F4F0630110589F78FEF5D
:101AD00089838A831B820E94D4178160782F9D831B
:101AE0008C8349815A816B818D810E945E022FC057
:101AF00080910D0281FD0E942210E12CFF24F394BD
:101B00008C2D8F21F1F00E94150D882399F0EE8223
:101B10009F82DF2081E009F480E088870E94D4174B
:101B20008160782F9A8789874E815F8168858A8551
:101B30000E945E02F801E550FE4F8081F826F08297
:101B400006C0E394FF0CF5E0EF12DACFBBCF0E94A2
:101B5000561581110E94F90C0E94EE120E94A316E4
:101B60009091FA018917B9F00E94A3168093FA01A7
:101B70002A960FB6F894DEBF0FBECDBFDF91CF918E
:101B80001F910F91FF90EF90DF90CF90BF90AF909B
:101B90009F900C9455022A960FB6F894DEBF0FBEA4
:101BA000CDBFDF91CF911F910F91FF90EF90DF900C
:101BB000CF90BF90AF909F900895CF93DF930E94F6
:101BC000070FEC01811521E5920708F045C081154A
:101BD00030E5930708F094C0883E910528F5803ED3
:101BE000910508F0F8C0883A910570F4853A91059E
:101BF00008F07CC08130910509F475C008F4E8C094
:101C0000049708F0E8C0E4C08F3B910508F0E0C0FD
:101C1000C85AD0E0CC0FDD1FC65BDE4F0990D881DB
:101C2000C02DCE019464D8C0811540E2940758F4C9
:101C3000811551E0950708F0CEC08D3E910508F45E
:101C4000C7C09065C9C0C11580E4D80708F4C0C0FA
:101C5000DF70CE01906AC0C0811525E59207A8F417
:101C6000811534E5930708F095C0811543E5940785
:101C700008F07BC0811552E5950708F061C0D82FA8
:101C8000CC27CE01816F906AA7C0C11589E5D8071E
:101C9000A0F4C11528E5D20708F082C0C11536E5C9
:101CA000D30708F095C08C2F0E949B0F8F7190E096
:101CB000D82FCC27CE0190628FC0C1154AE5D4073A
:101CC00008F474C0CE0190568115904208F080C08F
:101CD0008D2F8F710E949B0FDD27D0628F71AE0117
:101CE000582BCA0179C081E090E076C0C55AD0E097
:101CF000C858DE4F8881C82FD0E0CE0190646CC0F8
:101D000074E0969587957A95E1F7282F23703C2FFC
:101D1000337081E090E002C0880F991F3A95E2F796
:101D20009C68AC01522B9A019C2F9F7096959695BA
:101D300050E2959FE0011124C9018C2B9D2B4CC0D2
:101D40008370992721E030E002C0220F331F8A956B
:101D5000E2F79C2F9695969580E2989FE0011124DA
:101D6000C22BD32BCE019C6837C08370992721E00A
:101D700030E002C0220F331F8A95E2F79C2F969520
:101D8000969540E2949FE0011124C22BD32BCE0103
:101D90009A6822C0D82FCC27CE01846F906A1CC0CD
:101DA000DC2FCC27CE01806F906A16C08C2F8F70ED
:101DB0000E949B0F94E0D695C7959A95E1F7CF7056
:101DC000D0E0DC2FCC27D0699E01282BC90104C0AC
:101DD00080E090E001C0CE01DF91CF9108952EE127
:101DE000829FC0011124FC0125E0729FE00DF11DCE
:101DF0001124E60FF11DEE0FFF1FEC50FF4F8591F0
:101E0000949108950E94EF0E0E94DD0D089582388E
:101E1000910569F1B0F48133910509F46DC048F47E
:101E20008932910509F463C08A32910509F469C0C9
:101E300008958533910509F455C089339105B9F0AA
:101E40000895833E910569F138F4803E9105B1F023
:101E5000823E910509F10895863E9105A9F1873EDC
:101E60009105B9F1843E910509F064C023C0209129
:101E70003A0220FD4FC021FD4DC0089580913A02E5
:101E800080FD44C080913B0280FF44C080913A02B3
:101E900084FD42C083EE4DC080913A0282FF38C07B
:101EA000F5CF80913A0282FD33C080913B0280FDE4
:101EB00031C0ECCF80913B0281FF32C080913A0269
:101EC00084FD2AC087EE35C080913A0283FF26C088
:101ED000F5CF80913A0283FD21C080913B0281FDC4
:101EE0001FC0ECCF80913A0285FD1CC01DC08091BF
:101EF0003A0285FD19C016C080913A0286FD16C0CF
:101F000017C080913A0286FD13C010C089E311C04A
:101F100082EE0FC080EE0DC080E00BC086EE09C0DF
:101F200084EE07C089E205C085E303C08AE201C0F0
:101F300081E390E0089590913A0292FF0DC0282F1E
:101F40002871283019F4877F846006C0282F2471F7
:101F5000243011F48B7F886093FF0DC0282F2871E7
:101F6000283119F4877E846106C0282F247124311A
:101F700011F48B7E886120913B0220FF0DC0382F29
:101F80003871383019F4877F816006C0382F31717D
:101F9000313011F48E7F886021FF0DC0282F287109
:101FA000283119F4877E816106C0282F21712131E3
:101FB00011F48E7E886194FD877E089580E00895F7
:101FC0000C94310C0E94E4108FE39CE90197F1F727
:101FD00000C000000E94E41080E00E941C1080FFFE
:101FE00004C00E94E00F0C94211808950C94E20F95
:101FF0000E94370C811102C00E94DF0C0E94420C2B
:1020000080930D020E944A0C90933B0280933A0207
:102010000E94F60F0E94460C682F70E080E090E06E
:102020000E945E066091AD017091AE018091AF019A
:102030009091B0010C949606E82FF0E0EE5BFD4F16
:1020400080810895089580EA8A95F1F7089500C087
:1020500008950C94231008950C942B100C942C10BC
:102060000C942B100C943010F894E82FE295EF703C
:10207000F0E031A1282F2F7081E090E001C0880F9F
:102080002A95EAF7982F9095932391A392A1892BF3
:1020900082A3789408950F931F93CF93DF93C0E8A2
:1020A000D1E089918F3F11F00E94341081E0C63851
:1020B000D807B9F7CBE7D1E000E811E089918F3F6D
:1020C00011F00E9434100C171D07C1F7DF91CF915A
:1020D0001F910F910895CF92DF92EF92FF920F938D
:1020E0001F93CF93DF938C01C62FD0E0CE01805891
:1020F0009E4F7C01FC0190819F3F09F447C0D62E82
:10210000F894E92FE295EF70F0E081A19F7021E053
:1021100030E001C0220F9A95EAF7822B81A382A1B9
:102120002095282322A378940E942710EBE7F1E062
:1021300040E851E031E0C12C21912F3F89F0A22FDE
:10214000A295AF70B0E090968C9190E02F7002C095
:10215000959587952A95E2F780FD02C0832F01C0EF
:1021600080E0C82A330F4E175F0731F7F7018081EF
:102170008F3F11F00E94341061E0C11001C060E097
:102180008D2D0E942910C00FD11FC882DF91CF91E1
:102190001F910F91FF90EF90DF90CF9008950E94D4
:1021A0004B1086E0E2E4F2E0DF01982F1D929A9551
:1021B000E9F7ECE3F2E0DF011D928A95E9F786E0AA
:1021C0000E942C110C94D601FF920F931F93CF9372
:1021D000DF9300D000D000D0CDB7DEB78E010F5F07
:1021E0001F4F86E0F80111928A95E9F7F12C6F2DC7
:1021F000C8010E946B10F394F6E0FF12F8CF46E09E
:1022000050E0B8018CE392E00E943F1FFF24F3945A
:10221000009709F4F12C892B41F086E0F801ACE33A
:10222000B2E001900D928A95E1F72F2D46E062E42D
:1022300072E08CE392E00E942D110E94DC018F2D50
:1022400026960FB6F894DEBF0FBECDBFDF91CF91BB
:102250001F910F91FF9008950895FF920F931F9380
:10226000CF93DF938C01F62ED72FC42F222349F072
:1022700081E0809310020E94D41790930F02809304
:102280000E02809110028823C1F080910E0290917D
:102290000F020E94EC17059780F0EF2DFD2FD8015B
:1022A0004C2F50E0CD01801B910B841795071CF437
:1022B0008D918193F7CF10921002DF91CF911F91F2
:1022C0000F91FF9008950E94D7190E94320D0C942F
:1022D000E3190E94E7190E943A0D0C94011A0E941A
:1022E0005B170E94BE190E94240D0E9463110E9478
:1022F00069110E942E0DFBCF8091170280FF0BC049
:102300006091090185E0689FB0011124759567957A
:10231000759567952BC081FF09C06091090185E023
:10232000689FB00111247595679520C082FF07C092
:102330006091090185E0689FB001112417C0909158
:1023400016029923D1F060910801961788F7209121
:10235000090185E0289F90011124929FA001939F7D
:10236000500D112470E0CA010E94111F60387105E0
:1023700040F46115710519F406C065E070E0862F20
:1023800008958FE7089581E008958091170280FFF6
:1023900008C06091050170E0759567957595679522
:1023A00021C081FF06C06091050170E075956795B9
:1023B00019C082FF04C06091050170E010C09091C7
:1023C0001502992399F0609104019617A0F7809166
:1023D0000501899FC001112470E00E94111F60381F
:1023E000710540F46115710519F406C061E070E0F3
:1023F000862F08958FE7089581E008958D3E21F49A
:102400000E947C11819504C08E3E29F40E947C11AB
:1024100080931B0208958F3E21F40E947C118195C8
:1024200004C0803F29F40E947C1180931A02089511
:10243000893F19F40E94C51105C08A3F31F40E94FA
:10244000C511819580931C0208958B3F21F40E9451
:10245000C511819504C08C3F29F40E94C511809359
:102460001D0208959FE0980F983078F421E030E045
:10247000A90102C0440F551F9A95E2F7CA01909135
:102480001902892B8093190208958D3F21F48091C0
:10249000170281600BC08E3F21F480911702826089
:1024A00005C08F3F29F48091170284608093170242
:1024B00008958D3E39F490911B0297FF35C010921C
:1024C0001B0259C08E3E29F490911B021916BCF3D1
:1024D0002BC090911A028F3E29F497FF25C01092CD
:1024E0001A0249C0803F19F41916CCF31DC090910F
:1024F0001C02893F29F41916BCF410921C023BC03F
:102500008A3F19F497FF10C0F8CF8B3F39F49091B0
:102510001D0297FF09C010921D022DC08C3F21F4AF
:1025200090911D021916BCF39FE0980F983080F42B
:1025300021E030E0A90102C0440F551F9A95E2F74F
:10254000CA0180959091190289238093190213C0C2
:102550008D3F21F4809117028E7F0BC08E3F21F4B6
:10256000809117028D7F05C08F3F29F4809117025B
:102570008B7F8093170280911A02811106C080918F
:102580001B02811102C01092160280911C0281115F
:1025900006C080911D02811102C01092150208959B
:1025A0000E94D41720911A02211104C020911B020D
:1025B000222321F0909314028093130220911C0295
:1025C000211104C020911D02222321F090931202B8
:1025D0008093110288E192E00C94BA16EF92FF9278
:1025E0000F931F93CF93DF9300D000D000D0CDB7CF
:1025F000DEB786E0E8E1F2E0DE01119601900D928F
:102600008A95E1F7E0901A02F0901B0200911C02FB
:1026100010911D0210921A0210921B0210921C02BD
:1026200010921D02E11003C0FF2009F45DC08091EB
:102630001302909114020E94EC17AC0190911602C3
:10264000992339F020910A0130E02417350758F01A
:102650004BC020910B018AE0289F90011124241780
:10266000350718F041C09F3F19F09F5F9093160205
:10267000EE2061F00E947C111E1414F09FEF01C047
:1026800091E0989F902D112490931A02FF2061F001
:102690000E947C111F1414F09FEF01C091E0989FDD
:1026A000902D112490931B0230911A023323E1F0F4
:1026B00020911B022223C1F045EB3403C0011124F9
:1026C000992319F090931A0203C081E080931A02B3
:1026D00035EB2303C0011124992319F090931B02B9
:1026E00003C081E080931B02011103C0112309F490
:1026F0005DC080911102909112020E94EC17AC0112
:1027000090911502992339F02091060130E02417A9
:10271000350758F04BC0209107018AE0289F9001AF
:1027200011242417350718F041C09F3F19F09F5F0F
:1027300090931502002361F00E94C511101614F049
:102740009FEF01C091E0989F902D112490931C025F
:10275000112361F00E94C511111614F09FEF01C002
:1027600091E0989F902D112490931D0230911C02AE
:102770003323E1F020911D022223C1F045EB340305
:10278000C0011124992319F090931C0203C081E029
:1027900080931C0235EB2303C0011124992319F007
:1027A00090931D0203C081E080931D0280911A0264
:1027B00081110BC080911B02811107C080911C0206
:1027C000811103C080911D0281110E94D012EB8201
:1027D000FC820D831E8386E0FE013196A8E1B2E003
:1027E00001900D928A95E1F726960FB6F894DEBF18
:1027F0000FBECDBFDF91CF911F910F91FF90EF9052
:102800000895E8E1F2E086E0DF011D928A95E9F79C
:102810001092160210921502109217020895CF938B
:10282000DF93EC01FB018281882309F426C1C430C7
:10283000FDE5DF0760F4CB3F9CE5D90768F49E0116
:1028400022503C452431310508F018C105C0C2367C
:10285000EDE5DE0709F012C10E944A0C90933B029D
:1028600080933A02C031FCE5DF0709F4CAC008F0E2
:1028700041C0C8309CE5D90709F4A4C0F0F4C430C5
:10288000FCE5DF0709F48CC068F4C2309CE5D90789
:1028900009F482C0C330DC4509F0E5C080913A02FA
:1028A0008260DFC0C630FCE5DF0709F483C008F0B2
:1028B00085C080913A028860D4C0CC309CE5D907AD
:1028C00009F490C068F4CA30FCE5DF0709F47EC063
:1028D00008F084C00E94FD0580913A028068C1C062
:1028E000CE309CE5D90709F481C008F086C08091FC
:1028F0003A0294C0CD3FFCE5DF0709F47BC038F510
:10290000C4319CE5D90709F49AC058F4C231FCE5FA
:10291000DF0709F47AC008F07EC080913A028F7B0D
:10292000A0C0CB3F9CE5D907F1F108F03FC0C5310D
:10293000DC4509F098C080913A0282FB222720F9F9
:1029400091E0922790FB82F990FB83F98AC0C13015
:102950008DE5D80709F467C050F480913B02CF3F62
:10296000ECE5DE07C1F108F05BC08D7F65C0C330C8
:102970008DE5D80709F471C008F46DC0C236DD4595
:1029800009F071C080913A0284FB222720F991E07E
:10299000922790FB84F965C080913A02816061C002
:1029A00080913A0216C080913B0216C080913B0292
:1029B000826042C080913A02806153C080913A02A5
:1029C00080624FC080913A0280644BC080913A028D
:1029D0008860846046C0826081602EC080913A0227
:1029E0008E7F3FC080913A028D7F3BC080913A023A
:1029F000877F37C080913B0214C080913A028F7E5E
:102A000030C080913A028F7D2CC00E94FD058091DC
:102A10003A028F7726C080913A02877F8B7F21C050
:102A20008D7F8E7F09C080913B02982F9095917089
:102A30008E7F892B90FB81F980933B0214C00E940A
:102A4000FD0580913A0287FB222720F991E0922729
:102A500090FB87F906C081E001C080E00E94E10C94
:102A600002C080933A0280913A0290913B020E9408
:102A70005B0C0E94FD0580E001C081E0DF91CF91F9
:102A800008950C947B0157985F9A54985C9A89B189
:102A900090E0880F892F881F990B4C9902C020E085
:102AA00001C022E0822B8093200208952091200211
:102AB000220F220F2093200289B190E0880F892FE6
:102AC000881F990B39B134FBEE27E0F9F0E034FFB1
:102AD00002C0E2E0F0E0E82BF92BE22BE0932002C9
:102AE000EF70F0E0EA57FE4F908180911F02890F4E
:102AF00080931F0284305CF080911E028F5F809370
:102B00001E0260E080E00E94411521E001C020E04B
:102B100080911F028D3F54F480911E02815080935A
:102B20001E0261E080E00E94411521E080911F02B9
:102B3000082E000C990B64E070E00E94111F809336
:102B40001F02822F0895CF93DF9386319C4541F574
:102B5000EB010E945B0B982F8A812091020130913A
:102B60000301882379F09A7A81E009F480E0809368
:102B70002102911102C069E201C065E3C9010E940E
:102B800036170AC080912102811102C069E201C09A
:102B900065E3C9010E9438170E94A00B80E001C0C4
:102BA00081E0DF91CF9108950F931F93CF93DF932F
:102BB000C42FD22FFC0182818823C9F040932402C4
:102BC0000E94D417909323028093220280E28C0FFC
:102BD000883008F057C0C77081E001C0880FCA95DF
:102BE000EAF7DF91CF911F910F910C9458038091D8
:102BF0002402481330C080912202909123020E9447
:102C0000EC17883C910538F510E21D0FCD17B9F08F
:102C100080E28C0F883040F4C77081E001C0880FDB
:102C2000CA95EAF70E945F03183028F581E09D2FCE
:102C3000977001C0880F9A95EAF70E945803802F79
:102C40000E944F031830F0F4D77081E001C0880F64
:102C5000DA95EAF70AC080E28C0F883098F4C770E2
:102C600081E001C0880FCA95EAF7DF91CF911F91EB
:102C70000F910C945F03802FDF91CF911F910F91E3
:102C80000C944F03DF91CF911F910F9108950F93F3
:102C90009C01CB01243F4CE5340731F188F4293DF8
:102CA000FCE53F07D9F02A3D4CE5340779F1283D92
:102CB0003C45A9F506E221EE41EE68ED7CE52BC02E
:102CC000263FFCE53F07E1F0A8F0273F3C4539F5FA
:102CD00007E225EE46EE67EF7CE51DC007E225EE34
:102CE00045EE69ED7CE517C006E221EE40EE64EFAB
:102CF0007CE511C007E225EE44EE65EF7CE50BC0F4
:102D000006E221EE42EE66EF7CE505C008E221E036
:102D100045EE6AED7CE50E94D41580E008C0FC0118
:102D20008281882319F01092240201C081E00F9162
:102D300008959093970180939601089590932A02A5
:102D4000809329020895E0912902F0912A02309798
:102D500021F00190F081E02D099480E00895E09148
:102D60002902F0912A02309721F00280F381E02DB0
:102D700009940895E0912902F0912A02309739F0E0
:102D800022E0DC012C930480F581E02D0994089564
:102D900020912702309128022817390771F090936B
:102DA000280280932702E0912902F0912A023097AD
:102DB00021F00680F781E02D0994089520912502E5
:102DC000309126022817390771F0909326028093DC
:102DD0002502E0912902F0912A02309721F0008427
:102DE000F185E02D09940895FC01329697E080E08A
:102DF000915029F021912223D9F38F5FF9CF0895C3
:102E0000662349F0FC01329608962191621729F059
:102E1000E817F907D1F780E0089581E008959C0153
:102E2000FC0132969FEF80E04191461789F09F3F69
:102E300019F4411101C0982F8F5F8630A9F79F3F89
:102E400039F0F901E90FF11D97FDFA9562830895B4
:102E500008959C012A5F3F4FFC014281461301C047
:102E60001282019682179307B9F708950C940F17F1
:102E70000C942917029626E0FC0111922A95E9F795
:102E8000089508950C94411783E080932B020C94CD
:102E90004217811102C081E001C082E080932B02C1
:102EA0000C9442170C94491781E080932B020C94E8
:102EB00042170C945417089580915002843031F1D8
:102EC0000E94DE0110922C0220E488E190E00FB60F
:102ED000F894A895809360000FBE2093600083B79C
:102EE000817F846083BF83B7816083BF7894889536
:102EF00083B78E7F83BF0FB6F894A895809160004A
:102F0000886180936000109260000FBE089508955C
:102F10000C948717CF930E9488170E94E4100E9498
:102F20008717C0E08C2F0E941C10811104C0CF5F56
:102F3000C630C1F701C081E0CF9108950E94FD0520
:102F40000C9447021F920F920FB60F9211248F9389
:102F50009F93AF93BF9380912C02811113C08091F6
:102F6000480290914902A0914A02B0914B024196C9
:102F7000A11DB11D8093480290934902A0934A027B
:102F8000B0934B02BF91AF919F918F910F900FBE65
:102F90000F901F90189582E084BD93E095BD9AEF45
:102FA00097BD80936E0008952FB7F89480914802E2
:102FB00090914902A0914A02B0914B022FBF08950F
:102FC0002FB7F894609148027091490280914A02AB
:102FD00090914B022FBF08959C014FB7F8948091B8
:102FE000480290914902A0914A02B0914B024FBF12
:102FF000821B930B089578941F920F920FB60F9235
:1030000011248F939F93AF93BF9380914802909127
:103010004902A0914A02B0914B020196A11DB11D37
:103020008093480290934902A0934A02B0934B02C6
:10303000BF91AF919F918F910F900FBE0F901F90F6
:10304000189581E08093E00080E28093D800109290
:10305000C9008FE19EE40197F1F700C0000087E00E
:1030600090EBDC018093590290935A02A0935B028B
:10307000B0935C029CE088E10FB6F894A895809329
:1030800060000FBE90936000FFCF809138020895DA
:10309000089522E02093E9002FEF3091E8002150BD
:1030A00035FD06C035ED3A95F1F700002111F5CF59
:1030B0002091E80025FF0BC040E050E066E070E0A2
:1030C0000E94731A8091E8008E778093E80008953B
:1030D000CF93DF9321E02093E9002FEF3091E800B8
:1030E000215035FD06C035ED3A95F1F7000021116C
:1030F000F5CF2091E80025FF14C0EC0140E050E03E
:1031000068E070E00E94731A8091E8008E778093E7
:10311000E80088E0FE01A0E3B2E001900D928A95FC
:10312000E1F7DF91CF91089580932D0270932F02E4
:1031300060932E0280915002843001F582E08093EA
:10314000E9008FEF9091E800815095FD06C095ED64
:103150009A95F1F700008111F5CF8091E80085FF85
:103160000DC040E050E063E070E08DE292E00E942C
:10317000731A8091E8008E778093E8000895BC016F
:1031800084E00C949418BC0183E00C949418809112
:103190004F02811109C00E94041C0E94611C809191
:1031A000E20084608093E200089510924F02089537
:1031B0000C94591760914C0281E0611101C080E0CC
:1031C0000C9444179091500281E0943009F080E013
:1031D00060914C020C94491742E061EC81E00E943E
:1031E0007D1B42E261EC82E00E947D1B90915002C7
:1031F00081E0943009F080E060914C020C94521709
:1032000080915202833009F461C030F4813071F052
:10321000823009F49AC008958A3009F486C08B3050
:1032200009F46CC0893009F0A8C020C08091510217
:10323000813A09F0A2C08091E800877F8093E8007E
:103240008091550290915602892B21F468E080E329
:1032500092E003C060E080E090E070E00E94BE1A5F
:103260008091E8008B778093E80008958091510267
:10327000813209F082C080915502909156020297E6
:1032800008F07BC08091E800877F8093E800809100
:10329000E80082FD05C0809150028111F8CF6DC019
:1032A0002091F3008091F20090E0922B029731F48C
:1032B0008091F100813011F0863021F48091F1008D
:1032C000809338028091E8008B7753C0809151023F
:1032D000813A09F052C08091550290915602892B93
:1032E00009F04BC08091E800877F8093E8008091CF
:1032F000E80080FFFCCF8091180136C08091510218
:103300008132D9F58091550290915602892BA9F509
:103310008091E800877F8093E8000E94B21B809133
:103320005302809318010C94FD0580915102813263
:1033300021F58091E800877F8093E8000E94B21B0E
:103340008091540280933902089580915102813A0C
:10335000A1F48091E800877F8093E8008091E800E5
:1033600080FFFCCF809139028093F1008091E800CA
:103370008E778093E8000C94B21B089584B7877F02
:1033800084BF0FB6F894A8958091600088618093FF
:103390006000109260000FBE90E080E80FB6F894D5
:1033A00080936100909361000FBE0C9454170E94AB
:1033B000041C0E94611CE2EEF0E080818460808346
:1033C00078940C94F61E8CE091E00C949E168091FB
:1033D00050028530A9F480915002853079F40E9422
:1033E0005C1780914E028823B1F30E948A178823CC
:1033F00091F30E945D1A0E94FD05EDCF0C949E177B
:10340000089508950C94041A292F33272330310589
:10341000C9F060F42130310581F02230310509F026
:1034200044C08BE390E02CE531E043C0213231050C
:10343000E1F02232310549F138C082E190E027E91C
:1034400031E037C099278130910549F028F0029783
:1034500061F5E0E3F1E005C0E8E5F1E002C0E6E493
:10346000F1E0849190E09F0124C06115710541F065
:1034700061307105D1F489E090E027E831E019C0AE
:1034800089E090E02EE631E014C06115710541F04D
:103490006130710551F48BE790E029EA31E009C011
:1034A00080E490E024E232E004C080E090E020E09C
:1034B00030E0FA0131832083089580E189BD82E103
:1034C00089BD09B400FEFDCF8091D8008F7D809327
:1034D000D8008091E00082608093E0008091E0005D
:1034E00081FDFCCF0895CF92DF92EF92FF920F9370
:1034F0001F93CF93DF93EC018B017A010E94D11BC4
:10350000811133C0E114F10439F0F7018081918118
:10351000081B190BC80FD91FC12CD12C011511057F
:1035200019F18091E80085FD16C08091E8008E7742
:103530008093E800E114F10449F0F7018081918162
:10354000C80ED91ED182C08285E00FC00E94D11B57
:10355000882321F30AC089918093F1000150110959
:10356000FFEFCF1ADF0ADACF80E0DF91CF911F9112
:103570000F91FF90EF90DF90CF9008952091570228
:10358000309158022617370748F06115710539F454
:103590002091E8002E772093E80001C0B901FC01DA
:1035A00020E06115710579F1809150028823F1F1D5
:1035B0008530F1F18091E80083FD3CC08091E80006
:1035C00082FD2EC08091E80080FFEBCF2091F300B8
:1035D0008091F20090E0922B6115710551F08830D6
:1035E000910538F421912093F10061507109019601
:1035F000F3CF21E0089709F020E08091E8008E7772
:103600008093E800CECF2111CFCF0AC08091500225
:10361000882361F0853061F08091E80083FD0AC065
:103620008091E80082FFF2CF80E0089582E0089563
:1036300083E0089581E00895209157023091580267
:103640002617370748F06115710539F42091E80015
:103650002E772093E80001C0B901FC0120E061153C
:10366000710591F180915002882309F440C08530A2
:1036700009F43FC08091E80083FD3DC08091E800DF
:1036800082FD2FC08091E80080FFE9CF2091F300F8
:103690008091F20090E0922B6115710559F088300D
:1036A000910540F424912093F10031966150710905
:1036B0000196F2CF21E0089709F020E08091E80020
:1036C0008E778093E800CBCF2111CCCF0AC08091B8
:1036D0005002882361F0853061F08091E80083FD1D
:1036E0000AC08091E80082FFF2CF80E0089582E076
:1036F000089583E0089581E00895982F973068F544
:103700009093E900981739F07091EC002091ED004A
:103710005091F00003C0242F762F50E021FD02C00D
:103720009F5FECCF3091EB003E7F3093EB00309108
:10373000ED003D7F3093ED003091EB003160309330
:10374000EB007093EC002093ED005093F00020917B
:10375000EE0027FDE5CF80E008958F708093E900AB
:1037600081E008958091510287FF11C08091E800A7
:1037700082FD05C0809150028111F8CF11C0809167
:10378000E8008B770BC080915002882349F080912C
:10379000E80080FFF8CF8091E8008E778093E80002
:1037A00008952091E4003091E50095E64091EC0009
:1037B000842F817040FF23C08091E80080FD1DC0F0
:1037C00080915002882399F0853099F08091EB0028
:1037D00085FD11C04091E4005091E50024173507A4
:1037E00029F3915011F09A01E1CF84E0089582E02D
:1037F000089583E0089581E0089580E00895409160
:10380000E80042FFDDCF08950E94721C0E947A1CDE
:10381000E0EEF0E0808181608083E8EDF0E080817F
:103820008F77808319BCA7EDB0E08C918E7F8C934D
:1038300080818F7E808310924F0208950F931F9393
:10384000CF93DF930E94721C0E947A1CC8EDD0E0D7
:1038500088818F77888388818068888388818F7D3D
:10386000888319BC1092500210924C0210924E02A2
:1038700010924D0200EE10E0F80180818B7F808372
:1038800088818160888342E060E080E00E947D1B47
:10389000E1EEF0E080818E7F8083E2EEF0E08081D7
:1038A00081608083808188608083F80180818E7F41
:1038B0008083888180618883DF91CF911F910F91F0
:1038C0000895E8EDF0E080818F7E8083E7EDF0E001
:1038D00080818160808384E082BF81E080934F0299
:1038E0000C941E1CE8EDF0E080818E7F80831092A6
:1038F000E20008951092DA001092E10008951F92FC
:103900000F920FB60F9211242F933F934F935F9313
:103910006F937F938F939F93AF93BF93EF93FF9397
:103920008091E10082FF0BC08091E20082FF07C01E
:103930008091E1008B7F8093E1000E94F51E8091D1
:10394000DA0080FF1FC08091D80080FF1BC08091EB
:10395000DA008E7F8093DA008091D90080FF0DC05D
:1039600080E189BD82E189BD09B400FEFDCF81E01F
:10397000809350020E94C71805C019BC10925002D3
:103980000E94D5188091E10080FF19C08091E2006B
:1039900080FF15C08091E2008E7F8093E2008091CD
:1039A000E20080618093E2008091D8008062809381
:1039B000D80019BC85E0809350020E94DA188091EB
:1039C000E10084FF30C08091E20084FF2CC080E1E0
:1039D00089BD82E189BD09B400FEFDCF8091D80088
:1039E0008F7D8093D8008091E1008F7E8093E100ED
:1039F0008091E2008F7E8093E2008091E2008160FE
:103A00008093E20080914C02882311F084E007C08B
:103A10008091E30087FD02C081E001C083E08093D4
:103A200050020E94E2188091E10083FF29C080913A
:103A3000E20083FF25C08091E100877F8093E10051
:103A400082E08093500210924C028091E1008E7FC0
:103A50008093E1008091E2008E7F8093E20080916C
:103A6000E20080618093E20042E060E080E00E943A
:103A70007D1B8091F00088608093F0000E94D81830
:103A8000FF91EF91BF91AF919F918F917F916F9136
:103A90005F914F913F912F910F900FBE0F901F900C
:103AA00018951F920F920FB60F9211242F933F93E8
:103AB0004F935F936F937F938F939F93AF93BF9336
:103AC000CF93DF93EF93FF93C091E900CF70809184
:103AD000EC00D82FD17080FDD0E81092E9008091E1
:103AE000F000877F8093F00078940E94951D1092DB
:103AF000E9008091F00088608093F000CD2BCF70BA
:103B0000C093E900FF91EF91DF91CF91BF91AF9109
:103B10009F918F917F916F915F914F913F912F91E5
:103B20000F900FBE0F901F9018951F93CF93DF93A8
:103B3000CDB7DEB7AA970FB6F894DEBF0FBECDBFE4
:103B4000E1E5F2E08091F100819322E0E935F207AE
:103B5000C9F70E9400198091E80083FF2EC180916F
:103B6000510290915202492F50E04A30510508F01D
:103B700024C1FA01E059FF4F0C94251F803821F031
:103B8000823809F01AC108C080914D0290914E020E
:103B9000992389F082600FC0809155028F70873021
:103BA00008F00BC18093E9008091EB0085FB88272A
:103BB00080F91092E9009091E800977F9093E800D7
:103BC0008093F1001092F100D1C0282F2D7F09F0D1
:103BD000F4C0882319F0823061F0EFC08091530265
:103BE000813009F0EAC0933009F080E080934E0202
:103BF0002EC08091530281112AC0809155028F708E
:103C00002FEF280F263008F0D8C08093E9002091CC
:103C1000EB0020FF1CC0933021F48091EB00806208
:103C200014C09091EB0090619093EB0021E030E0A4
:103C3000A90102C0440F551F8A95E2F74093EA009C
:103C40001092EA008091EB0088608093EB00109264
:103C5000E9008091E800877F8093E8000E94B21B12
:103C6000ACC08111AAC0109153021F778091E3006C
:103C70008078812B8093E3008091E800877F809398
:103C8000E8000E94B21B8091E80080FFFCCF809189
:103C9000E30080688093E300111102C082E001C05C
:103CA00083E08093500289C08058823008F085C03C
:103CB00080915302909154028C3D53E0950779F521
:103CC00083E08A838AE289834FB7F894DE011396F2
:103CD00020E03EE051E2E32FF0E050935700E49102
:103CE00020FF03C0E295EF703F5FEF708E2F90E0F2
:103CF000EA3010F0C79601C0C0968D939D932F5F58
:103D0000243149F74FBF8091E800877F8093E80016
:103D10006AE270E0CE0101960E94BE1A16C0609160
:103D2000550270915602AE014F5F5F4F0E94021A1A
:103D3000BC01892B09F441C09091E800977F9093D2
:103D4000E80089819A810E941C1B8091E8008B7792
:103D50008093E80032C0803881F58091E800877F49
:103D60008093E80080914C028093F1008091E800FC
:103D70008E7772CF811121C08091530290915402AD
:103D800099270297D4F48091E800877F8093E80018
:103D90008091530280934C020E94B21B80914C028E
:103DA000811106C08091E30087FD02C081E001C05F
:103DB00084E0809350020E94EC188091E80083FF19
:103DC0000AC08091E800877F8093E8008091EB0033
:103DD00080628093EB00AA960FB6F894DEBF0FBE08
:103DE000CDBFDF91CF911F9108950895CF9380911A
:103DF00050028823A1F0C091E900CF709091EC00AF
:103E0000892F817090FD80E8C82B1092E900809185
:103E1000E80083FD0E94951DCF70C093E900CF910B
:103E2000089597FB072E16F4009407D077FD09D06C
:103E30000E942B1F07FC05D03EF4909581959F4F63
:103E40000895709561957F4F0895EE0FFF1F0590BF
:103E5000F491E02D0994AA1BBB1B51E107C0AA1FD6
:103E6000BB1FA617B70710F0A61BB70B881F991F1B
:103E70005A95A9F780959095BC01CD010895FB0155
:103E8000DC0104C08D910190801921F44150504013
:103E9000C8F7881B990B0895F999FECF92BD81BD93
:103EA000F89A992780B50895A8E1B0E042E050E083
:103EB0000C94801F262FF999FECF92BD81BDF89AF0
:103EC000019700B4021639F01FBA20BD0FB6F8945E
:103ED000FA9AF99A0FBE08950396272F0E945B1F46
:103EE0000E945A1F252F0E945B1F242F0C945B1FDA
:103EF0000196272F0E945B1F0C945A1FDC01CB01F7
:103F0000FC01F999FECF06C0F2BDE1BDF89A3196E9
:103F100000B40D9241505040B8F70895F894FFCF87
:103F2000C800EF012808641E140A321E45186818DC
:103F30004918C318BF18481801E200E900EA00B5A3
:103F400000B600B700CD008301CC008A0192019435
:103F5000012102230224022502260227022A02B39B
:103F600000B4006F007000818283E200E900EA0083
:103F7000B500B600B700CD008301CC008A019201E4
:103F800094012102230224022502260227022A028A
:103F9000B300B4006F007000818283F4F5F635360B
:103FA00034F76766F1F000FF0100010000FFFF0039
:063FB00000010001FF000A
:00000001FF
